:020000040800F2
:10000000000002209D330008A9050008AB05000888
:10001000AD050008AF050008B105000800000000AC
:10002000000000000000000000000000D1300008C7
:10003000B305000800000000713100085B2C0008C7
:10004000ED330008ED330008ED330008ED33000810
:10005000ED330008ED330008ED330008ED33000800
:10006000ED330008ED330008ED330008ED330008F0
:10007000ED330008ED330008ED330008ED330008E0
:10008000ED330008ED330008ED330008ED330008D0
:10009000ED330008ED330008ED330008ED330008C0
:1000A000ED330008B5050008ED330008ED33000816
:1000B000ED330008ED330008ED330008ED330008A0
:1000C000ED330008ED330008ED330008ED33000890
:1000D000ED330008ED330008ED330008ED33000880
:1000E000ED330008ED330008ED330008ED33000870
:1000F000ED330008ED330008ED330008ED33000860
:10010000ED330008ED330008ED330008ED3300084F
:10011000ED330008ED330008ED330008ED3300083F
:10012000ED330008ED330008ED330008ED3300082F
:10013000ED3300080000000000000000ED3300086F
:10014000ED330008ED330008ED330008ED3300080F
:10015000ED330008ED330008ED330008ED330008FF
:10016000ED330008ED330008ED330008ED330008EF
:10017000ED330008ED330008ED3300080000000007
:1001800000000000ED330008000000000000000047
:10019000ED3300080000000000000000ED3300080F
:1001A000000000000000000000000000ED33000827
:1001B000ED330008ED330008ED330008ED3300089F
:0401C000ED33000813
:1001D000844641EA000313F003036DD1403A41D352
:1001E00051F8043B40F8043B51F8043B40F8043B11
:1001F00051F8043B40F8043B51F8043B40F8043B01
:1002000051F8043B40F8043B51F8043B40F8043BF0
:1002100051F8043B40F8043B51F8043B40F8043BE0
:1002200051F8043B40F8043B51F8043B40F8043BD0
:1002300051F8043B40F8043B51F8043B40F8043BC0
:1002400051F8043B40F8043B51F8043B40F8043BB0
:1002500051F8043B40F8043B51F8043B40F8043BA0
:10026000403ABDD2303211D351F8043B40F8043B40
:1002700051F8043B40F8043B51F8043B40F8043B80
:1002800051F8043B40F8043B103AEDD20C3205D350
:1002900051F8043B40F8043B043AF9D2043208D048
:1002A000D2071CBF11F8013B00F8013B01D30B88BA
:1002B00003806046704700BF082A13D38B078DD098
:1002C00010F003038AD0C3F10403D21ADB071CBF6A
:1002D00011F8013B00F8013B80D331F8023B20F8D4
:1002E000023B7BE7043AD9D3013A11F8013B00F80D
:1002F000013BF9D20B7803704B7843708B78837095
:100300006046704753B94AB9002908BF00281CBF8E
:100310004FF0FF314FF0FF3000F00CB8ADF1080C9A
:100320006DE904CE03F046F9DDF804E0DDE90223CF
:1003300004B07047704700BF0348044B834202D0AB
:10034000034B03B1184770472C0000202C000020FD
:10035000000000000548064B1B1AD90F01EBA30152
:10036000491002D0034B03B1184770472C000020FE
:100370002C0000200000000010B5064C237843B983
:10038000FFF7DAFF044B13B10448AFF300800123F9
:10039000237010BD2C000020000000007038000801
:1003A00008B5054B1BB105490548AFF30080BDE812
:1003B0000840FFF7CFBF00BF000000003000002062
:1003C0007038000830B58BB000240594069407946B
:1003D000089409940194224B1A6B42F004021A63A8
:1003E0001A6B02F004020192019A02941A6B42F015
:1003F00080021A631A6B02F080020292029A03943E
:100400001A6B42F001021A631A6B02F001020392A6
:10041000039A04941A6B42F002021A631B6B03F0F6
:1004200002030493049B0F4D22462021284600F02E
:100430009DFF4FF4005305934FF404130693079464
:1004400005A9094800F0A2FE202305930123069385
:100450000794089405A9284600F098FE0BB030BD1B
:1004600000380240000002400008024008B50120A8
:1004700002F08CFCFBE7000008B50268034B9A42CF
:1004800000D008BD00F0FAFFFBE700BF000001400C
:1004900072B6FEE708B50A480A4B0360FF234360C3
:1004A000012282600023C360026143618361C361F2
:1004B000036201F099F800B908BDFFF7E9FF00BF3A
:1004C0004C000020001000A000B595B0342200219F
:1004D00007A802F08DFF0023029303930493059372
:1004E000069300931F4A116C41F080511164126C05
:1004F00002F080520092009A01931B490A6822F48C
:10050000404242F480420A600A6802F4404201928A
:10051000019A0222079201210A9110210B910D925A
:100520000E930F914FF4A87310930423119312921A
:10053000139207A800F008FC80B90F230293022150
:100540000391002304934FF480520592069302A86E
:1005500000F04EFA20B915B05DF804FBFFF798FFE4
:10056000FFF796FF003802400070004008B500F029
:100570006BFFFFF7A9FFFFF725FFFFF78BFF00F0E9
:10058000AFFF02F077FB054A0021054802F0A0FB0F
:10059000044B186002F080FBFEE700BFAC38000897
:1005A0006D04000848000020FEE7FEE7FEE7FEE7D6
:1005B000FEE7704708B5024800F0D0F808BD00BF5C
:1005C000A400002000B583B0002200920D4B596CAE
:1005D00041F480415964596C01F4804100910099C3
:1005E0000192196C41F0805119641B6C03F0805327
:1005F0000193019B0F216FF0010000F011FF03B088
:100600005DF804FB003802402DE9F04188B000237A
:10061000039304930593069307930268264B9A422B
:1006200002D008B0BDE8F08100240094234B9A6BFF
:1006300042F002029A639A6B02F002020092009A60
:1006400001941A6B42F002021A631A6B02F0020262
:100650000192019A02941A6B42F004021A631B6B16
:1006600003F004030293029B0423039302260496DF
:10067000032506954FF00908CDF81C80104F03A9FB
:10068000384600F083FD4FF4C0630393049605944D
:100690000695CDF81C8003A90A4800F077FD402399
:1006A00003930496059406950A23079303A93846F5
:1006B00000F06CFDB5E700BF001000A0003802405C
:1006C00000040240000802407047000090F83D30EE
:1006D000DBB2012B37D1022380F83D300268D368AA
:1006E00043F00103D3600368194A934220D0B3F169
:1006F000804F1DD0A2F57C42934219D002F5806252
:10070000934215D002F58062934211D002F57842EF
:1007100093420DD002F57052934209D0A2F5943263
:10072000934205D01A6842F001021A600020704717
:100730009A6802F00702062A07D01A6842F00102FE
:100740001A6000207047012070470020704700BFEA
:1007500000000140704770477047704770B504460D
:100760000368DE681D6915F0020F10D016F0020F45
:100770000DD06FF002021A610123037703689B69B1
:1007800013F0030F5ED0FFF7E6FF0023237715F089
:10079000040F12D016F0040F0FD023686FF004027C
:1007A0001A610223237723689B6913F4407F4FD09B
:1007B0002046FFF7D0FF0023237715F0080F12D053
:1007C00016F0080F0FD023686FF008021A61042397
:1007D00023772368DB6913F0030F40D02046FFF72F
:1007E000BAFF0023237715F0100F12D016F0100F68
:1007F0000FD023686FF010021A6108232377236853
:10080000DB6913F4407F31D02046FFF7A4FF0023BB
:10081000237715F0010F02D016F0010F2DD115F03E
:10082000800F02D016F0800F2FD115F0400F02D0AC
:1008300016F0400F31D115F0200F02D016F0200F26
:1008400033D170BDFFF786FF2046FFF785FF9CE799
:100850002046FFF77FFF2046FFF77EFFABE72046ED
:10086000FFF778FF2046FFF777FFBAE72046FFF74C
:1008700071FF2046FFF770FFC9E723686FF00102A0
:100880001A612046FFF7F8FDC9E723686FF0800280
:100890001A61204600F0ABF8C7E723686FF040020A
:1008A0001A612046FFF759FFC5E723686FF0200261
:1008B0001A61204600F09AF8C3E700000368344A42
:1008C000904212D0B0F1804F0FD0A2F57C429042FE
:1008D0000BD002F58062904207D002F58062904210
:1008E00003D002F57842904203D123F070034A68A6
:1008F0001343274A90422AD0B0F1804F27D0A2F567
:100900007C42904223D002F5806290421FD002F5D3
:10091000806290421BD002F57842904217D002F5D7
:100920007052904213D002F5806290420FD002F5CF
:10093000806290420BD0A2F59832904207D002F527
:100940008062904203D002F58062904203D123F48A
:100950004073CA68134323F080034A69134303605A
:100960008B68C3620B688362094B984203D003F51E
:100970008063984201D10B690363012343610369DA
:1009800013F0010F03D0036923F0010303617047E3
:100990000000014040B310B5044690F83D30F3B17B
:1009A000022384F83D30214651F8040BFFF786FFFF
:1009B000012384F8463084F83E3084F83F3084F8D0
:1009C000403084F8413084F8423084F8433084F871
:1009D000443084F8453084F83D30002010BD80F864
:1009E0003C30FFF771FEDBE701207047704770472E
:1009F000002800F09B8070B50D4604464F4B1B68E5
:100A000003F00F038B4208D2CBB24C4A1370136829
:100A100003F00F038B4240F08B80236813F0020F2A
:100A200017D013F0040F04D0454A936843F4E05301
:100A30009360236813F0080F04D0414A936843F48D
:100A4000604393603E4A936823F0F003A1680B4330
:100A50009360236813F0010F32D06368012B21D01B
:100A60009A1E012A25D9364A126812F0020F61D067
:100A700033498A6822F0030213438B6000F00AFDB9
:100A800006462F4B9B6803F00C036268B3EB820FA2
:100A900016D000F0FFFC801B41F288339842F0D959
:100AA000032042E0264A126812F4003FE0D1012000
:100AB0003BE0234A126812F0007FD9D1012034E0D4
:100AC0001E4B1B6803F00F03AB4207D9EAB21B4B66
:100AD0001A701B6803F00F03AB422DD1236813F08B
:100AE000040F06D0164A936823F4E053E1680B43E1
:100AF0009360236813F0080F07D0114A936823F41A
:100B00006043216943EAC103936000F055F80C4B40
:100B10009B68C3F303130B4AD35CD8400A4B18609D
:100B20000A4B186800F0EAFC002070BD01207047F5
:100B30000120FAE70120F8E70120F6E7003C024037
:100B400000380240D83800080800002004000020C7
:100B5000014B1868704700BF0800002008B5FFF778
:100B6000F7FF044B9B68C3F34233034AD35CD8407E
:100B700008BD00BF00380240D03800080F230360D2
:100B80000B4B9A6802F0030242609A6802F0F0028E
:100B900082609A6802F4E052C2609B68DB0803F44A
:100BA000E0530361034B1B6803F00F030B607047B6
:100BB00000380240003C024008B5604B9B6803F0DF
:100BC0000C03082B06D00C2B5ED0042B40F0B48015
:100BD0005B4833E0594B5A6802F03F025B6813F4FC
:100BE000800F2CD0554B5868C0F388104FEA401C3A
:100BF000BCEB000C6EEB0E0E4FEA8E1343EA9C63C7
:100C00004FEA8C11B1EB0C0163EB0E03DB0043EAFE
:100C10005173C90011EB000C43F10003590200238A
:100C20004FEA4C2041EADC51FFF76CFB434B5B6819
:100C3000C3F3014301335B00B0FBF3F008BD3F4B4E
:100C40005868C0F388104FEA401CBCEB000C6EEBF8
:100C50000E0E4FEA8E1343EA9C634FEA8C11B1EB00
:100C60000C0163EB0E03DB0043EA5173C90011EB87
:100C7000000C43F10003990200234FEA8C2041EA63
:100C80009C51FFF73FFBD1E72C4B5A6802F03F0223
:100C90005B6813F4800F2AD0284B5868C0F3881083
:100CA0004FEA401CBCEB000C6EEB0E0E4FEA8E13AD
:100CB00043EA9C634FEA8C11B1EB0C0163EB0E032A
:100CC000DB0043EA5173C90011EB000C43F1000350
:100CD000590200234FEA4C2041EADC51FFF712FB96
:100CE000164B5B68C3F30273B0FBF3F0A6E7134B3C
:100CF0005868C0F388104FEA401CBCEB000C6EEB48
:100D00000E0E4FEA8E1343EA9C634FEA8C11B1EB4F
:100D10000C0163EB0E03DB0043EA5173C90011EBD6
:100D2000000C43F10003990200234FEA8C2041EAB2
:100D30009C51FFF7E7FAD3E702487FE7003802400B
:100D400000127A000024F400002800F0018270B53F
:100D500082B00446036813F0010F41D0994B9B68A1
:100D600003F00C03042B32D0964B9B6803F00C036A
:100D7000082B27D0934B9B6803F00C030C2B59D006
:100D80006368B3F5803F5BD0B3F5A02F5ED08D4B89
:100D90001A6822F480321A601A6822F480221A60DB
:100DA0006368002B5CD000F075FB0546854B1B6823
:100DB00013F4003F14D100F06DFB401B6428F5D9FB
:100DC0000320CCE17F4B5B6813F4800FD2D07D4BC6
:100DD0001B6813F4003F03D06368002B00F0BA8156
:100DE000236813F0020F60D0764B9B6813F00C0F52
:100DF0004AD0744B9B6803F00C03082B3FD0714B17
:100E00009B6803F00C030C2B69D0E368002B75D0B2
:100E10006D4B01221A6000F03DFB0546694B1B68D3
:100E200013F0020F61D100F035FB401B0228F5D909
:100E3000032094E1634B5B6813F4800FA0D0C6E7F6
:100E4000604A136843F480331360A9E75D4B1A6866
:100E500042F480221A601A6842F480321A609FE7D6
:100E600000F018FB0546574B1B6813F4003FB7D042
:100E700000F010FB401B6428F5D903206FE1514BB3
:100E80005B6813F4800FBAD14E4B1B6813F0020F4E
:100E900003D0E368012B40F05F814A4A136823F0D6
:100EA000F803216943EAC1031360236813F0080FB4
:100EB00049D06369002B33D0434B0122C3F8802E05
:100EC00000F0E8FA05463F4B5B6F13F0020F3AD192
:100ED00000F0E0FA401B0228F5D903203FE1394B2E
:100EE0005B6813F4800F90D1CEE7364A136823F085
:100EF000F803216943EAC1031360D6E7324B0022AD
:100F00001A6000F0C7FA05462E4B1B6813F0020F5B
:100F1000CBD000F0BFFA401B0228F5D903201EE118
:100F2000294B0022C3F8802E00F0B4FA0546254B69
:100F30005B6F13F0020F06D000F0ACFA401B0228E2
:100F4000F5D903200BE1236813F0040F76D01D4B75
:100F50001B6C13F0805F33D100230193194B1A6C83
:100F600042F080521A641B6C03F080530193019B82
:100F70000125164B1B6813F4807F29D0A368012B31
:100F80003AD0052B3ED00F4B1A6F22F001021A67A0
:100F90001A6F22F004021A67A368002B3CD000F0FD
:100FA00079FA0646074B1B6F13F0020F45D100F08C
:100FB00071FA801B41F288339842F3D90320CEE0C6
:100FC0000025D6E70038024000004742007000408C
:100FD0006B4A136843F48073136000F05BFA0646B3
:100FE000674B1B6813F4807FC8D100F053FA801B55
:100FF0000228F5D90320B2E0624A136F43F00103DF
:101000001367C9E75F4B1A6F42F004021A671A6F41
:1010100042F001021A67BFE700F03CFA0646594B5E
:101020001B6F13F0020F08D000F034FA801B41F25E
:1010300088339842F3D9032091E0EDB9A369002BDE
:1010400000F08C804F4A926802F00C02082A54D0BB
:10105000022B17D04C4B00221A6600F01BFA0446F4
:10106000484B1B6813F0007F45D000F013FA001BBB
:101070000228F5D9032072E0424A136C23F0805312
:101080001364DBE7404B00221A6600F003FA0546C2
:101090003C4B1B6813F0007F06D000F0FBF9401BAF
:1010A0000228F5D903205AE0E369226A1343626AF1
:1010B00043EA8213A26A5208013A43EA0243E26A0F
:1010C00043EA0263226B43EA02732E4A53602E4BBB
:1010D00001221A6600F0DEF904462A4B1B6813F061
:1010E000007F06D100F0D6F9001B0228F5D90320B5
:1010F00035E0002033E0002031E0012B31D0214BDE
:101100005B6803F48001E26991422CD103F03F0255
:10111000216A8A4229D1616A47F6C0721A40B2EB4D
:10112000811F24D103F44031A26A5208013AB1EB85
:10113000024F1ED103F07062E16AB2EB016F1AD167
:1011400003F0E043226BB3EB027F16D1002006E0F0
:1011500001207047012002E0012000E0002002B0E1
:1011600070BD0120FBE70120F9E70120F7E701202E
:10117000F5E70120F3E70120F1E70120EFE700BFE9
:1011800000700040003802400000474200230F2B4F
:1011900000F2E38070B582B065E085684FEA430EE7
:1011A000032404FA0EF425EA0405CC6804FA0EF4CC
:1011B0002C438460446824EA02044A68C2F30012A3
:1011C0009A40224342605CE0DC08083450F8242056
:1011D00003F00705AD004FF00F0E0EFA05FE22EAF0
:1011E0000E0E0A69AA4042EA0E0240F824205CE092
:1011F000062200E0002202FA0EF22A430234574D82
:1012000045F82420564A94686FEA0C0224EA0C053B
:101210004E6816F4801F01D04CEA0405504CA560BE
:10122000E46802EA04054E6816F4001F01D04CEA97
:1012300004054B4CE560646802EA04054E6816F448
:10124000003F01D04CEA0405454C6560246822400B
:101250004D6815F4803F01D04CEA0402404C2260F6
:1012600001330F2B77D801229A400C6804EA020C54
:1012700032EA0404F4D14C6804F00304013C012C6C
:101280008BD94A6802F00302032A09D0C4685D00C2
:101290000322AA4024EA02048A68AA402243C260C8
:1012A0004A6802F00302022A8ED004684FEA430E15
:1012B000032202FA0EF224EA02044A6802F0030250
:1012C00002FA0EF2224302604A6812F4403FC7D08D
:1012D00000220192234A546C44F480445464526CBA
:1012E00002F480420192019A9C08A51C1B4A52F804
:1012F000255003F0030E4FEA8E0E0F2202FA0EF273
:1013000025EA0205184A90423FF474AF02F5806264
:10131000904216D002F58062904214D002F58062AD
:10132000904212D002F58062904210D002F58062A5
:1013300090420ED002F5806290423FF459AF0722EE
:1013400059E7012257E7022255E7032253E7042217
:1013500051E705224FE702B070BD704700380140E9
:10136000003C014000380240000002400AB18161A7
:101370007047090481617047002807DB00F01F02F5
:10138000400901239340024A42F82030704700BFD1
:1013900000E100E0002808DB0901C9B200F160406B
:1013A00000F5614080F80013704700F00F0009015C
:1013B000C9B2014B1954704714ED00E000B500F0BC
:1013C0000700C0F1070CBCF1040F28BF4FF0040C5C
:1013D000031D062B0FD9C31E4FF0FF3E0EFA0CF073
:1013E00021EA000199400EFA03FE22EA0E0241EAC8
:1013F00002005DF804FB0023EEE70000074AD36813
:1014000023F4E0631B041B0C000200F4E0600343C0
:1014100043F0BF6343F40033D360704700ED00E056
:1014200010B50446054BD868C0F30220FFF7C6FF8D
:1014300001462046FFF7AEFF10BD00BF00ED00E003
:1014400008B5FFF799FF08BD08B50B4B1A6842F4C1
:1014500000721A601A6842F480621A601A6842F4D4
:1014600080721A600320FFF7C9FF0F2000F046F8D2
:10147000FFF7A8F8002008BD003C0240034A1168AD
:10148000034B1B780B441360704700BF980000208B
:1014900000000020014B1868704700BF9800002032
:1014A000034AD2F8883043F47003C2F8883070479A
:1014B00000ED00E0024B01221A701878704700BF5F
:1014C00020000020024B01221A701878704700BFDC
:1014D0002000002000207047002070470120704746
:1014E00008B50349034800F001F9034B187008BD23
:1014F0009C0000200C000020A000002030B589B026
:101500000546002401941D4B5A6C42F001025A64B6
:101510005B6C03F001030193019B02A903A8FFF791
:101520002DFBFFF71BFB164AA2FB00239B0C013B84
:101530001448154A026040F2E732C2604360046119
:1015400084608461FFF726FA044610B1204609B092
:1015500030BD0C48FFF7BAF804460028F6D1192030
:10156000FFF76EFF0F2D01D90124EFE70022294676
:101570001920FFF755FF054B1D60E7E700380240D3
:1015800083DE1B43A4000020000001400400002073
:101590002DE9F84305460F4616469946DDF82080AA
:1015A0002C68A4683C4214BF4FF0010C4FF0000CB3
:1015B000B44514D0B8F1FF3FF2D0FFF76BFFA0EBBA
:1015C0000900404502D8B8F1000FE9D1042385F89D
:1015D00041306B6C43F001036B64012000E000209C
:1015E000BDE8F8838164704770B582B00446FFF7A8
:1015F00051FF002C4CD0064694F84130002B3CD0D3
:1016000025682A6822F4F852A168013942EA0122C9
:101610002A60A36C00933346002220212046FFF766
:10162000B7FF28BB21680B6823F07F4323F0D0036A
:101630006568E26842EA0562E5692A43256A2A4349
:1016400013430B6021684A68124B13402569626995
:1016500042EA0542A5692A4313434B602268136896
:1016600043F00103136000236364012384F84130D5
:10167000002384F8403002B070BD84F8403020462A
:10168000FEF7C2FF41F288312046FFF7ABFFB7E714
:101690000120F0E7FEF8E0FF134B5B7A13BB10B5B7
:1016A000044603F0FF00104B93F809C05FFA8CFC6E
:1016B0004FF0000E03F80CE093F809C003EB8C0C1C
:1016C000CCF804405C7A1C4422725A7A541CE4B26E
:1016D0005C7230320A703A234B702F238B7081F882
:1016E00003E010BD01207047EC00002008B5002287
:1016F000FFF7D2FF08BD00F1080343604FF0FF324F
:101700008260C360036100230360704700230361AC
:10171000704743684B609A688A60516099600861BD
:10172000036801330360704730B40D68B5F1FF3FC3
:1017300011D000F108031C465B681A68AA42FAD966
:1017400063684B6099608C60616008610368013375
:10175000036030BC70470469F2E70369416882683E
:101760008A60416851605A68824206D00022026154
:101770001A68013A1A601868704782685A60F5E77B
:1017800010B5044601F0B6FCA26BE36B9A4204D09C
:10179000002401F0D1FC204610BD0124F9E710B56A
:1017A000044601F0A7FCA36B23B9012401F0C4FC9B
:1017B000204610BD0024F9E770B504461546866B37
:1017C000026C5AB903681BB100200136A66370BDD4
:1017D000806800F0D1FF0023A360F6E76DB9406890
:1017E000FEF7F6FC6368226C13446360A2689342C0
:1017F00019D3236863602846E7E7C068FEF7E8FC72
:10180000E368226C51429B1AE3602268934202D241
:10181000A3680B44E360022D01D00020D5E726B178
:10182000013E0020D1E72846CFE70020CDE7034660
:10183000026C6AB110B50846D9681144D9609C6839
:10184000A14201D31968D960D968FEF7C1FC10BD67
:10185000704738B5054601F04DFC95F8454064B237
:1018600001E0013C64B2002C0ADD6B6A43B105F172
:10187000240000F0D7FE0028F3D000F067FFF0E767
:10188000FF2385F8453001F057FC01F033FC95F853
:10189000444064B201E0013C64B2002C0ADD2B69D3
:1018A00043B105F1100000F0BDFE0028F3D000F0B8
:1018B0004DFFF0E7FF2385F8443001F03DFC38BDD3
:1018C00038B5E0B10D46044601F014FC2368E26B24
:1018D000216C01FB0230A0600020A0636360013A2C
:1018E00002FB0133E360FF2384F8443084F8453081
:1018F000FDB9236963B901F01FFC012038BD4FF029
:10190000500383F31188BFF36F8FBFF34F8FFEE750
:1019100004F1100000F086FE0028ECD04FF0E02328
:101920004FF08052C3F8042DBFF34F8FBFF36F8F7A
:10193000E1E704F11000FFF7DEFE04F12400FFF7F9
:10194000DAFED8E738B51D46049C0B4649B9246039
:10195000E063236401212046FFF7B2FF84F84C5076
:1019600038BD2260F4E740B94FF0500383F311888B
:10197000BFF36F8FBFF34F8FFEE710B584B01C46E7
:10198000844653B192B189B94FF0500383F3118863
:10199000BFF36F8FBFF34F8FFEE74FF0500383F31A
:1019A0001188BFF36F8FBFF34F8FFEE76AB15023EB
:1019B0000393039B502B13D04FF0500383F31188F4
:1019C000BFF36F8FBFF34F8FFEE70029EFD04FF0CB
:1019D000500383F31188BFF36F8FBFF34F8FFEE780
:1019E000039B012384F8463000949DF8183060462C
:1019F000FFF7A8FF204604B010BDF0B585B00192F6
:101A000088B10F461D460446B1B1022D20D1E36BCB
:101A1000012B1DD04FF0500383F31188BFF36F8F5C
:101A2000BFF34F8FFEE74FF0500383F31188BFF3EE
:101A30006F8FBFF34F8FFEE7036C002BE5D04FF0A5
:101A4000500383F31188BFF36F8FBFF34F8FFEE70F
:101A500000F082FE064658B9019B002B48D04FF09B
:101A6000500383F31188BFF36F8FBFF34F8FFEE7EF
:101A700000263DE02A4639462046FFF79DFE636A70
:101A80007BB948B14FF0E0234FF08052C3F8042DEA
:101A9000BFF34F8FBFF36F8F01F04EFB012005B0F6
:101AA000F0BD04F1240000F0BDFD0028F4D04FF09B
:101AB000E0234FF08052C3F8042DBFF34F8FBFF3E4
:101AC0006F8FE9E701F038FB0020E8E702A800F09B
:101AD000EFFD012619E0002384F8443021E00023C3
:101AE00084F8453023E02046FFF7B3FE00F078FC91
:101AF00001F000FBA26BE36B9A42BBD3022DB9D07D
:101B0000019B002BDED0002EE0D001F015FB00F091
:101B1000CDFB01F0EFFA94F8442052B2B2F1FF3F4E
:101B2000D9D094F8452052B2B2F1FF3FD7D001F09E
:101B300003FB01A902A800F0C7FDD8B92046FFF7B2
:101B40001FFE0028CFD0019904F1100000F036FDEF
:101B50002046FFF77EFE00F043FC0028C8D14FF07E
:101B6000E0234FF08052C3F8042DBFF34F8FBFF333
:101B70006F8FBDE72046FFF76CFE00F031FC0020C0
:101B80008DE72DE9F84390B10F4616461C460546F1
:101B9000B1B1022C20D1EB6B012B1DD04FF05003C3
:101BA00083F31188BFF36F8FBFF34F8FFEE74FF0C2
:101BB000500383F31188BFF36F8FBFF34F8FFEE79E
:101BC000036C002BE5D04FF0500383F31188BFF373
:101BD0006F8FBFF34F8FFEE701F0B2FBEFF3118879
:101BE0004FF0500383F31188BFF36F8FBFF34F8F14
:101BF000AA6BEB6B9A4206D3022C04D0002088F328
:101C00001188BDE8F88395F845904FFA89F9AB6BD8
:101C1000224639462846FFF7CFFDB9F1FF3F06D0EF
:101C200009F101035BB285F845300120E7E76B6AF3
:101C30000BB90120E3E705F1240000F0F3FC18B133
:101C400026B101203060DAE70120D8E70120D6E78D
:101C5000F0B585B0019290B10F460446C1B100F0D5
:101C60007BFD064600BB019B002B5ED04FF050036E
:101C700083F31188BFF36F8FBFF34F8FFEE74FF0F1
:101C8000500383F31188BFF36F8FBFF34F8FFEE7CD
:101C9000036C002BE3D04FF0500383F31188BFF3A4
:101CA0006F8FBFF34F8FFEE700263EE03946204698
:101CB000FFF7BDFD013DA563236923B901F03CFA9F
:101CC000012005B0F0BD04F1100000F0ABFC0028CD
:101CD000F4D04FF0E0234FF08052C3F8042DBFF34F
:101CE0004F8FBFF36F8FE9E701F026FA0020E8E796
:101CF00002A800F0DDFC012621E0002384F8443036
:101D000029E0002384F845302BE02046FFF7A1FDB1
:101D100000F066FB09E02046FFF79BFD00F060FB4A
:101D20002046FFF73CFD00283FD101F0E3F9A56B09
:101D3000002DBBD1019B002BD6D0002ED8D001F0B6
:101D4000FBF900F0B3FA01F0D5F994F844305BB236
:101D5000B3F1FF3FD1D094F845305BB2B3F1FF3F10
:101D6000CFD001F0E9F901A902A800F0ADFC0028EC
:101D7000D1D12046FFF713FD0028C6D0019904F108
:101D8000240000F01BFC2046FFF763FD00F028FB59
:101D90000028CAD14FF0E0234FF08052C3F8042D41
:101DA000BFF34F8FBFF36F8FBFE7002089E70000BD
:101DB0000023072B0CD8074A52F833200AB101330D
:101DC000F7E7044A42F8331002EBC3025060704751
:101DD000704700BFF800002070B504460D46164657
:101DE00001F088F994F844305BB2B3F1FF3F0DD0B5
:101DF00094F845305BB2B3F1FF3F0BD001F09CF992
:101E0000A36B5BB12046FFF724FD70BD002384F86F
:101E10004430EDE7002384F84530EFE732462946A9
:101E200004F1240000F0E2FBECE70000084B1B6823
:101E30001B6823B9074B4FF0FF321A607047044B01
:101E40001B68DB68DB685A68024B1A60704700BF8A
:101E5000A8010020400100202DE9F04780460D46F2
:101E600017469946089EDDF824A00A9C9200A521F9
:101E7000206B01F0BDFA236B07F18042013A03EBBE
:101E8000820727F00707A5B34FF0000CBCF10F0F36
:101E900009D815F80C3004EB0C0282F8343013B179
:101EA0000CF1010CF2E7002384F84330372E00D9FF
:101EB0003726E662E66400252565201DFFF726FC2F
:101EC00004F11800FFF722FC2461C6F13806A66170
:101ED0006462656584F858504A464146384601F0C8
:101EE000DDF82060BAF1000F01D0CAF80040BDE86B
:101EF000F087002384F83430D8E7000038B5002498
:101F000007E004EB840293000E481844FFF7F3FB4C
:101F10000134372CF5D90C4D2846FFF7ECFB0B4C60
:101F20002046FFF7E8FB0A48FFF7E5FB0948FFF703
:101F3000E2FB0948FFF7DFFB084B1D60084B1C6004
:101F400038BD00BFD4010020C0010020AC0100203A
:101F5000900100207C01002064010020A8010020E5
:101F6000A401002010B5044601F0C4F8224A136809
:101F700001331360214B1B685BB1214B1B686BB9AC
:101F80001E4B1B68DA6AE36A9A4207D81B4B1C6037
:101F900004E01A4B1C601368012B29D0194A1368FE
:101FA000013313606364E06A174B1B68984201D9E0
:101FB000154B186000EB8000211D144B03EB8000D3
:101FC000FFF7A7FB01F0B8F80D4B1B687BB10B4B7B
:101FD0001B68DA6AE36A9A4209D24FF0E0234FF0B5
:101FE0008052C3F8042DBFF34F8FBFF36F8F10BD26
:101FF000FFF784FFD2E700BF600100203406002015
:10200000540100204401002058010020D401002088
:1020100010B5044690F8593063B1012B11D0022B52
:102020000ED04FF0500383F31188BFF36F8FBFF3CF
:102030004F8FFEE7006B00F0B5FF204600F0B2FFC7
:1020400010BD00F0AFFFFBE70F4B1B68D3B110B51D
:1020500001F050F80D4BDB68DC68201DFFF77DFBBD
:102060000B4A1368013B1360074A1368013B136076
:1020700001F062F82046FFF7CBFF034B1B68002BF3
:10208000E6D110BD704700BF780100207C01002020
:102090006001002008B5FFF7D7FF074B1B68012B35
:1020A000F9D94FF0E0234FF08052C3F8042DBFF36D
:1020B0004F8FBFF36F8FEEE7D401002070B5044659
:1020C0000D46174B1E68174B18680430FFF745FB89
:1020D000B4F1FF3F0DD03444124B1B685C60A64244
:1020E00010D9114B18680F4B19680431FFF71CFB0E
:1020F00070BD002DEFD00B4B196804310B48FFF772
:1021000008FBF5E70A4B1868064B19680431FFF71E
:102110000BFB084B1B68A342EAD9064B1C60E7E7A0
:102120005C01002034060020A4010020640100208E
:10213000A80100204001002030B587B00B9C7CB185
:102140000C9DB5B15C250495049D5C2D1AD04FF013
:10215000500383F31188BFF36F8FBFF34F8FFEE7F8
:102160004FF0500383F31188BFF36F8FBFF34F8F8E
:10217000FEE74FF0500383F31188BFF36F8FBFF377
:102180004F8FFEE7049D0C9D2C63022485F8594077
:1021900000240394029505AC01940A9C0094FFF777
:1021A0005BFE0C98FFF7DEFE059807B030BD2DE909
:1021B000F04385B00746884614461E46900000F05E
:1021C0006FFE08B381465C2000F06AFE0546A8B1A8
:1021D000C0F83090002380F85930039302900D9B93
:1021E00001930C9B00933346224641463846FFF745
:1021F00033FE2846FFF7B6FE012007E0484600F010
:10220000D1FE4FF0FF3001E04FF0FF3005B0BDE8E8
:10221000F083000010B588B000240594069407AA46
:1022200006A905A800F0C0FD059B0293069B01933B
:1022300000942346079A17491748FFF77DFF174B6D
:102240001860C0B100F04CFB012815D14FF05003CD
:1022500083F31188BFF36F8FBFF34F8F104B4FF095
:10226000FF321A600F4B01221A600F4B00221A60D6
:1022700000F0DAFF03E00020B0F1FF3F01D008B02A
:1022800010BD4FF0500383F31188BFF36F8FBFF37E
:102290004F8FFEE794380008952000083C0100208D
:1022A00040010020540100205C010020024A136814
:1022B00001331360704700BF38010020014B1868DC
:1022C000704700BF5C010020F8B53A4B1B68002B3B
:1022D00069D1394B1D6801351D60C5B9374B1B6885
:1022E0001B6843B14FF0500383F31188BFF36F8F26
:1022F000BFF34F8FFEE7314A1168314B1868106009
:102300001960304A136801331360FFF78FFD2E4BBD
:102310001B68AB423DD900272C4B1B68DB6A03EBE3
:1023200083039A002A4B9B58012B00D90127294B84
:102330001B68002B3CD001273AE001271F4B1B688C
:102340001B6843B31D4B1B68DB68DC6863689D42F8
:1023500026D3261D3046FFF700FAA36A1BB104F10D
:102360001800FFF7FAF9E36A1B4A1268934201D991
:10237000194A136003EB83039A0031461448104452
:10238000FFF7C7F9E26A114B1B68DB6A9A42D4D2A5
:10239000D4E70027D2E70C4B4FF0FF321A60BBE7BF
:1023A000094A1360B8E70D4A136801331360002728
:1023B0003846F8BD380100205C010020A80100204B
:1023C000A401002048010020400100203406002024
:1023D000D40100204C0100205801002050010020B1
:1023E00038B5354B1B6843B94FF0500383F3118860
:1023F000BFF36F8FBFF34F8FFEE700F07BFE2E4BD6
:102400001A68013A1A601B68002B4FD12B4B1B68CE
:102410000BB900244BE00024294B1B681BB3284B4D
:10242000DB68DC6804F11800FFF797F9251D2846E2
:10243000FFF793F9E06A234B1B68984201D9214BBF
:10244000186000EB800029461F4B03EB8000FFF76C
:1024500060F9E26A1D4B1B68DB6A9A42DCD31C4BB5
:1024600001221A60D8E70CB1FFF7E0FC194B1C6899
:1024700084B9174B1C68D4B14FF0E0234FF0805261
:10248000C3F8042DBFF34F8FBFF36F8F01240EE00D
:10249000013C07D0FFF718FF0028F9D00C4B0122B0
:1024A0001A60F5E70B4B00221A60E2E7002400F007
:1024B00043FE204638BD00BF3801002060010020E7
:1024C0009001002058010020D40100203406002093
:1024D0004C0100205001002010B5A8B10446104B5B
:1024E0001B6843B14FF0500383F31188BFF36F8F24
:1024F000BFF34F8FFEE7FFF7D9FE00212046FFF71D
:10250000DDFDFFF76DFF48B94FF0E0234FF080523B
:10251000C3F8042DBFF34F8FBFF36F8F10BD00BF03
:1025200038010020204B1B681BB1204B01221A6090
:1025300070471E4B00221A601D4B1B6803EB830182
:102540008A001C498A585AB90BB1013BF6E74FF093
:10255000500383F31188BFF36F8FBFF34F8FFEE7F4
:10256000084603EB83018A000244516849685160C0
:1025700003EB830C4FEA8C020832024491420BD0E9
:1025800003EB830291000B4A0A445268D1680A4A5D
:102590001160074A13607047486862469100054A17
:1025A0000A445060ECE700BF380100204C010020D5
:1025B00058010020D40100203406002058B110B585
:1025C0000C46094A11681831FFF7AEF80121204680
:1025D000FFF774FD10BD4FF0500383F31188BFF374
:1025E0006F8FBFF34F8FFEE73406002038B570B110
:1025F0000D4614460A4A11681831FFF78AF80CB1E3
:102600004FF0FF3521462846FFF758FD38BD4FF003
:10261000500383F31188BFF36F8FBFF34F8FFEE733
:102620003406002038B5C368DC6824B304F118050B
:102630002846FFF792F8184B1B682BBB251D284630
:10264000FFF78BF8E06A154B1B68984201D9134BD2
:10265000186000EB80002946114B03EB8000FFF768
:1026600058F8E26A0F4B1B68DB6A9A4211D90120C5
:102670000D4B186038BD4FF0500383F31188BFF342
:102680006F8FBFF34F8FFEE729460848FFF741F8E9
:10269000E7E70020EEE700BF3801002058010020E6
:1026A000D4010020340600204C01002090010020BD
:1026B000034B1B680360034B1B684360704700BFFC
:1026C000480100205C010020F8B5C8B10C46054661
:1026D000F9B100F00FFD1B4B19686B68C81A22682E
:1026E000B2F1FF3F26D0184E36682F68B74201D0AE
:1026F0008B4224D9824215D80023236001241AE09A
:102700004FF0500383F31188BFF36F8FBFF34F8FE8
:10271000FEE74FF0500383F31188BFF36F8FBFF3D1
:102720004F8FFEE75B1A134423602846FFF7C0FF74
:10273000002400E0002400F0FFFC2046F8BD012446
:10274000F9E700BF5C01002048010020014B012295
:102750001A6070474C010020054B1B6833B1054BD4
:102760001B680BB1002070470220704701207047A2
:10277000540100203801002000283BD038B5044621
:102780001E4B1B68834208D04FF0500383F311881F
:10279000BFF36F8FBFF34F8FFEE7036D43B94FF069
:1027A000500383F31188BFF36F8FBFF34F8FFEE7A2
:1027B000013B0365C16AC26C91421DD00BB1002080
:1027C00038BD051D2846FEF7C8FFE06CE062C0F189
:1027D0003803A3610A4B1B68984201D9084B186063
:1027E00000EB80002946074B03EB8000FEF791FFCA
:1027F0000120E5E7002070470020E1E734060020D3
:1028000058010020D4010020064B1A6813682BB928
:102810000123036023B9D368186870470023F8E7E1
:10282000002070473807002008B5416000619142E0
:102830000CD8D21A83699A4201D3012008BD011D28
:10284000094B1868FEF770FF0020F7E79A4201D2A3
:10285000994206D2011D054B1868FEF765FF00205E
:10286000ECE70120EAE700BF34070020380700202A
:1028700030B583B000F03EFC114B1B681BB100F07B
:102880005BFC03B030BD0F4D2846FEF734FF0E4C05
:102890002046FEF730FF0D4B1D600D4B1C600023E2
:1028A00000930C4B0C4A10210A20FFF75CF8044BF4
:1028B00018600028E3D00949FFF77AFADFE700BF84
:1028C00030070020500700203C0700203807002078
:1028D0003407002038060020880600209C380008B5
:1028E00010B588B0FFF7C4FF124B1B68CBB10024B2
:1028F0000594069407AA06A905A800F061FA059BAD
:102900000293069B0193022300932346079A0A49E8
:102910000A48FFF711FC0A4B186010B1012008B0FB
:1029200010BD4FF0500383F31188BFF36F8FBFF3D7
:102930004F8FFEE730070020A4380008452C000820
:102940002C070020B8B19C4603461848006858B3CD
:1029500000B585B000910192029305291CDCFFF7B8
:10296000FBFE022810D000231A4669460F48006873
:10297000FFF743F815E04FF0500383F31188BFF3DE
:102980006F8FBFF34F8FFEE70023069A6946074813
:102990000068FFF732F804E0002362466946FFF75B
:1029A000F0F805B05DF804FB002070473007002008
:1029B00070B582B01B4B1B681A6862B3DB681E6877
:1029C000DC68251D2846FEF7C8FE236A2046984786
:1029D00094F8283013F0040FECD0A36933449E42DE
:1029E00007D26360246129460E4B1868FEF79CFEEF
:1029F000E0E7002100910B4632462046FFF7A2FF98
:102A00000028D7D14FF0500383F31188BFF36F8FA5
:102A1000BFF34F8FFEE7044A106802490860136055
:102A200002B070BD380700203407002038B50546D5
:102A3000FFF744FC0446074B1B68834205D800237C
:102A40002B60044B1C60204638BDFFF7B1FF01230B
:102A50002B60F6E72807002070B582B006460D46C9
:102A600017490968C968CC68201DFEF776FE94F8FE
:102A700028C01CF0040F08D12CF0010C84F828C0E9
:102A8000236A2046984702B070BDA16933462A46A2
:102A900031442046FFF7C8FE0028F1D00021009104
:102AA0000B4632462046FFF74DFF0028E8D14FF095
:102AB000500383F31188BFF36F8FBFF34F8FFEE78F
:102AC0003807002070B582B006460C46FFF7EEFBD3
:102AD00001A8FFF7ABFF019B33BB0546E4B9B04249
:102AE00013D22246711B124B1868FFF775F9FFF7D6
:102AF00077FCD8B94FF0E0234FF08052C3F8042D93
:102B0000BFF34F8FBFF36F8F10E0FFF769FC2946CB
:102B10003046FFF7A1FF09E0064A126812680AB9B9
:102B20000124DEE71C46DCE7FFF75AFC02B070BD6B
:102B3000300700203407002010B588B002E0049B65
:102B4000002B0FDA002204A93D4B1868FFF780F82C
:102B5000002873D0049B002BF1DA07990698059B97
:102B60009847ECE7069C636913B1201DFEF7F5FD5D
:102B700003A8FFF75BFF049B092BE3D8DFE803F012
:102B80000505053037500505303794F8283043F0F7
:102B9000010384F82830059BA169024619442046A8
:102BA000FFF742FE0028CDD0236A2046984794F8CC
:102BB000283013F0040FC5D0A269002100910B4604
:102BC000059802442046FFF7BDFE0028BAD14FF019
:102BD000500383F31188BFF36F8FBFF34F8FFEE76E
:102BE00094F8283023F0010384F82830AAE794F8F9
:102BF000283043F0010384F828300599A16131B1F0
:102C00000346024601442046FFF70EFE9AE74FF0C6
:102C1000500383F31188BFF36F8FBFF34F8FFEE72D
:102C200094F8283013F0020F04D023F0010384F845
:102C3000283087E7204600F0B5F983E708B010BDDB
:102C40003007002000B583B001A8FFF7DDFD019932
:102C5000FFF738FFFFF770FFF6E708B54FF0E02306
:102C60001B69FFF779FD012800D108BD00F0B2FA19
:102C7000FBE70000EFF305832BB9064B186828B972
:102C800001221A6070476FF0050070474FF0FF3067
:102C9000704700BF1C0E0020EFF3058373B90A4B89
:102CA0001B68012B0DD110B50024084BDC77064BB7
:102CB00002221A60FFF7AEFA204610BD6FF0050041
:102CC00070474FF0FF3070471C0E002000ED00E011
:102CD000F0B587B000240594EFF3058474BB68B3A6
:102CE00022B31568936903B918235C1E372C49D8A1
:102CF000546814F0010F47D156696EB14FEA960C33
:102D000094682CB1D7685B2F02D9176907B1C6B98F
:102D10002CB14FF0FF340EE04FF0800CF0E7D46898
:102D20008CB9146994B14FF0FF3404E015460024C7
:102D300018234FF0800C012C0AD0ACB1059807B0D5
:102D4000F0BD0124F7E74FF0FF34F4E70024F2E789
:102D5000146992680292019400930B4662462946D8
:102D6000FFF7EAF90590E9E705AA019200930B46FF
:102D70001FFA8CF22946FFF71AFA0128DED0002349
:102D80000593DBE70020DAE70020D8E708B5EFF38A
:102D9000058333B908B9002008BDFFF79DFB00206B
:102DA000FAE76FF00500F7E7034B0360034B0B6096
:102DB00080231360704700BFC00D0020C00B0020AF
:102DC000034B0360034B0B604FF480731360704739
:102DD000640B002064070020124A12F0070F1ED077
:102DE000D11D21F00701C1F5705313440A460E4866
:102DF0000260002141601344083B23F007030B48A5
:102E0000036059601960991A51601360084B19608A
:102E1000084B1960084B4FF000421A6070474FF49E
:102E20007053E4E7400E0020380E0020340E0020DE
:102E30002C0E0020300E0020200E0020164B1A46CB
:102E40001B688342FBD3516802EB010C844509D017
:102E5000416800EB010C634509D00360904219D032
:102E6000106070474068014451601046F0E710B4AC
:102E70000A4C2468A3420BD05B6819444160136874
:102E80001B680360904200D010605DF8044B7047EF
:102E90000460F7E7704700BF380E0020340E0020B2
:102EA00038B50446FFF702FA384B1B68B3B1384B0C
:102EB0001B681C4250D1002C50D004F1080214F0C1
:102EC000070F02D022F007020832002A55D0314BFA
:102ED0001B68934253D330490C6804E0FFF77CFF32
:102EE000E5E721461C466368934202D22368002B23
:102EF000F7D1264B1B68A34243D00D6808352368E1
:102F00000B6063689B1A102B10D9A01810F0070FE4
:102F100008D04FF0500383F31188BFF36F8FBFF3D6
:102F20004F8FFEE743606260FFF788FF62681949D0
:102F30000B689B1A0B60194909688B4201D217492B
:102F40000B60134B1B681343636000232360144A18
:102F500013680133136002E0002500E00025FFF74D
:102F60003FFA15F0070F0ED04FF0500383F311888E
:102F7000BFF36F8FBFF34F8FFEE70025EFE700250C
:102F8000EDE70025EBE7284638BD00BF340E0020F2
:102F9000200E0020300E0020380E00202C0E0020C5
:102FA000280E0020002834D038B50446A0F10805CA
:102FB00050F8043C174A1268134208D14FF05003EE
:102FC00083F31188BFF36F8FBFF34F8FFEE750F885
:102FD000081C41B14FF0500383F31188BFF36F8F8A
:102FE000BFF34F8FFEE723EA020340F8043CFFF7EC
:102FF0005DF954F8041C084A13680B441360284612
:10300000FFF71CFF054A136801331360FFF7E8F967
:1030100038BD7047200E0020300E0020240E002006
:1030200082B0002301930D4B1B68B3F1FF3F08D022
:103030004FF0500383F31188BFF36F8FBFF34F8FAF
:10304000FEE74FF0500383F31188BFF36F8FBFF398
:103050004F8F019B002BFCD002B070472400002052
:1030600008480068006880F308884FF0000080F38B
:10307000148862B661B6BFF34F8FBFF36F8F00DF66
:1030800000BF000008ED00E0DFF80C00016841F42B
:10309000700101607047000088ED00E04FF0807320
:1030A00040F8043C21F0010140F8081C054B40F8B1
:1030B0000C3C40F8202C6FF0020340F8243C4438CC
:1030C000704700BF21300008000000000000000031
:1030D000074B19680868B0E8F04F80F30988BFF320
:1030E0006F8F4FF0000080F311887047AFF30080BE
:1030F000340600204FF0500383F31188BFF36F8F25
:10310000BFF34F8F0B4A136801331360012B00D0BC
:1031100070474FF0E023D3F8043D13F0FF0FF7D0D2
:103120004FF0500383F31188BFF36F8FBFF34F8FBE
:10313000FEE700BF24000020094B1B6843B94FF095
:10314000500383F31188BFF36F8FBFF34F8FFEE7F8
:10315000013B034A13600BB983F31188704700BF2A
:10316000240000200000000000000000000000001B
:10317000EFF30980BFF36F8F154B1A681EF0100F25
:1031800008BF20ED108A20E9F04F10602DE90900FA
:103190004FF0500080F31188BFF34F8FBFF36F8F54
:1031A000FFF7C0F94FF0000080F3118809BC1968DF
:1031B0000868B0E8F04F1EF0100F08BFB0EC108A9E
:1031C00080F30988BFF36F8F704700BFAFF30080B3
:1031D0003406002008B54FF0500383F31188BFF385
:1031E0006F8FBFF34F8FFFF76FF828B14FF0E023D9
:1031F0004FF08052C3F8042D002383F3118808BDDB
:103200004FF0E022002313619361054B1B680549D1
:10321000A1FB03139B09013B536107231361704713
:1032200008000020D34D62104FF0E023D3F8002DAA
:103230003D4B9A421CD04FF0E023D3F8002D3B4B7E
:103240009A421ED030B583B0394B1A78D2B201926F
:10325000FF221A701B78DBB28DF803309DF8033023
:1032600003F05003334A1370334B07221A601BE0FC
:103270004FF0500383F31188BFF36F8FBFF34F8F6D
:10328000FEE74FF0500383F31188BFF36F8FBFF356
:103290004F8FFEE7284A1368013B13609DF8033007
:1032A0005B00DBB28DF803309DF8033013F0800F24
:1032B000F0D1214B1B68032B08D04FF0500383F350
:1032C0001188BFF36F8FBFF34F8FFEE71B021A4ABF
:1032D000136003F4E0631360019BDBB2144A1370C4
:1032E0004FF0E024D4F8203D43F47003C4F8203DAF
:1032F000D4F8203D43F07043C4F8203DFFF780FF31
:1033000000250E4B1D60FFF7BFFED4F8343F43F09D
:103310004043C4F8343FFFF7A3FEFFF703F9FFF77C
:103320007FFE284603B030BD71C20F4170C20F410D
:1033300000E400E0444A0020404A0020240000202D
:10334000EFF305830F2B0FD9114A9B5CDBB2114AB7
:1033500012789A4208D94FF0500383F31188BFF3D3
:103360006F8FBFF34F8FFEE74FF0E023D3F80C3D94
:1033700003F4E063084A1268934208D94FF05003FF
:1033800083F31188BFF36F8FBFF34F8FFEE7704752
:10339000F0E300E0444A0020404A0020DFF834D047
:1033A000FEF77EF80C480D490D4A002302E0D45880
:1033B000C4500433C4188C42F9D30A4A0A4C00237F
:1033C00001E013600432A242FBD300F063F8FDF782
:1033D000CDF8704700000220000000202C000020E3
:1033E000FC3800082C000020E04B0020FEE7000025
:1033F000830730B547D0541E002A3ED0CAB20346D8
:1034000001E0013C39D303F8012B9D07F9D1032CCE
:103410002CD9CDB205EB05250F2C05EB054535D98B
:10342000A4F1100222F00F0C03F1100EE6444FEA53
:10343000121C1A46C2E90055C2E902551032724503
:10344000F8D10CF1010214F00C0F03EB021204F09E
:103450000F0C13D0ACF1040323F003030433134423
:1034600042F8045B9342FBD10CF003042CB1C9B2C7
:103470001C4403F8011BA342FBD130BD6446134634
:10348000002CF4D1F9E703461446C0E71A46A446D7
:10349000E0E700BF70B50F4B0F4DAB42A3EB050645
:1034A00007D0B610002455F8043B01349847A642D3
:1034B000F9D800F0DDF9094D094B5E1BAB424FEA2C
:1034C000A60606D0002455F8043B01349847A642CE
:1034D000F9D870BDF0380008F0380008F03800085E
:1034E000F8380008704700BF704700BF024B13B1A7
:1034F000024800F005B87047000000000D350008D4
:10350000002301461A46184600F014B838B5074D96
:10351000074C2C1BA41005D0013C55F8043D9847DE
:10352000002CF9D1BDE8384000F0A8B9FC380008FB
:10353000F83800082DE9F8431B4D064628689846E0
:103540000F469146FFF7CEFF184B1C681CB3286846
:1035500065681F2D22DC4EB96B1C0235636044F890
:103560002570FFF7C1FF0020BDE8F88304EB85015B
:103570000123C1F88890D4F88821AB401A43022E69
:10358000C4F88821C1F80881E6D1D4F88C211A4307
:10359000C4F88C21E0E7064C1C60D8E7FFF7A4FFD5
:1035A0004FF0FF30E0E700BF280000204C4A002029
:1035B000504A00202DE9F047089D0E4604460F466C
:1035C000002B4AD194468C45B2FA82F260D942B1BE
:1035D000C2F12003974020FA03F30CFA02FC1F43C8
:1035E00094404FEA1C4E1FFA8CF6B7FBFEF1230CF9
:1035F0000EFB117743EA074301FB06F098420AD914
:103600001CEB030301F1FF3780F01581984240F273
:103610001281023963441B1AA4B2B3FBFEF00EFB05
:10362000103344EA034400FB06F6A6420AD91CEB19
:10363000040400F1FF3380F00081A64240F2FD80D7
:103640006444023840EA0140A41B00211DB1D4406B
:103650000023C5E90043BDE8F0878B4205D90DB1D1
:10366000C5E9000100210846F5E7B3FA83F1002916
:1036700046D1B34202D3824200F2F580841A66EB4F
:10368000030201201746002DE5D0C5E90047E2E717
:10369000002A40F09380A1EB0C034FEA1C471FFA6D
:1036A0008CFE0121B3FBF7F607FB1630230C43EA2F
:1036B00000430EFB06F0984208D91CEB030306F109
:1036C000FF3802D2984200F2D08046461B1AA4B2BC
:1036D000B3FBF7F007FB103344EA03440EFB00FE94
:1036E000A64508D91CEB040400F1FF3302D2A6451D
:1036F00000F2B6801846A4EB0E0440EA0640A5E7A7
:10370000C1F120078B4022FA07FC4CEA030C06FAB1
:1037100001FE20FA07F426FA07F344EA0E0400FA41
:1037200001F84FEA1C404FEA1449B3FBF0FE1FFAC0
:103730008CF600FB1E3349EA03430EFB06F999455C
:1037400002FA01F20BD91CEB03030EF1FF3A80F0F1
:103750008580994540F28280AEF1020E6344A3EB6E
:103760000909A4B2B9FBF0F300FB139944EA094438
:1037700003FB06F6A64208D91CEB040403F1FF3054
:1037800068D2A64266D9023B644443EA0E40A41BB9
:10379000A0FB02E6B4427346B14652D34FD05DB1AE
:1037A000B8EB030264EB090404FA07F722FA01F309
:1037B0001F43CC40C5E9007400214CE7C2F1200151
:1037C00020FA01F30CFA02FC26FA01F19640334389
:1037D0004FEA1C471FFA8CFEB1FBF7F007FB1016EF
:1037E000190C41EA064100FB0EF68E4204FA02F47F
:1037F00008D91CEB010100F1FF382DD28E422BD9E4
:1038000002386144891B9BB2B1FBF7F607FB161126
:1038100043EA014306FB0EF1994208D91CEB03036E
:1038200006F1FF3814D2994212D9023E63445B1A62
:1038300046EA004136E73946EDE6184602E7F0452C
:10384000ADD2BEEB020366EB0C060138B146A6E72B
:103850004646ECE7034698E74046D3E7D6467EE780
:103860006444023847E708460DE7023E63442DE70B
:10387000F8B500BFF8BC08BC9E467047F8B500BF5D
:08388000F8BC08BC9E4670472D
:1038880064656661756C745461736B0049444C459A
:1038980000000000546D725100000000546D722049
:1038A800537663008838000800000000000000001C
:1038B80000000000000000000002000018000000E6
:1038C80000000000000000000000000001020304E6
:1038D80000000000000000000102030406070809B8
:0838E800E8C8FF7F01000000A9
:0838F000ED340008A1030008FB
:0438F8007903000848
:1038FC0001000000100000000024F400B5140008C2
:10390C00C5140008D5140008D9140008DD140008EB
:0C391C0001000000AAAAAAAA484A002044
:040000050800339D1F
:00000001FF
