:020000040800F2
:100000000000022001110008D5100008D7100008D8
:10001000D9100008DB100008DD1000080000000007
:10002000000000000000000000000000DF100008D9
:10003000E110000800000000E3100008E5100008CF
:100040005111000851110008511100085111000808
:1000500051110008511100085111000851110008F8
:1000600051110008511100085111000851110008E8
:1000700051110008511100085111000851110008D8
:1000800051110008511100085111000851110008C8
:1000900051110008511100085111000851110008B8
:1000A00051110008511100085111000851110008A8
:1000B0005111000851110008511100085111000898
:1000C0005111000851110008511100085111000888
:1000D0005111000851110008511100085111000878
:1000E0005111000851110008511100085111000868
:1000F0005111000851110008511100085111000858
:100100005111000851110008511100085111000847
:100110005111000851110008511100085111000837
:100120005111000851110008511100085111000827
:1001300051110008000000000000000051110008EB
:100140005111000851110008511100085111000807
:1001500051110008511100085111000851110008F7
:1001600051110008511100085111000851110008E7
:100170005111000851110008511100080000000041
:100180000000000051110008000000000000000005
:10019000511100080000000000000000511100088B
:1001A00000000000000000000000000051110008E5
:1001B0005111000851110008511100085111000897
:0401C00051110008D1
:1001C40053B94AB9002908BF00281CBF4FF0FF31BA
:1001D4004FF0FF3000F00CB8ADF1080C6DE904CE1F
:1001E40000F0E2FFDDF804E0DDE9022304B070472B
:1001F400704700BF10B5054C237833B9044B13B1D5
:100204000448AFF300800123237010BD0C000020CC
:10021400000000006814000808B5034B1BB1034933
:100224000348AFF3008008BD000000001000002068
:100234006814000810B504460E4B1A784FF47A730C
:10024400B3FBF2F30C4A1068B0FBF3F000F09AF839
:1002540068B90F2C01D901200AE0002221464FF091
:10026400FF3000F07FF8054B1C60002000E0012007
:1002740010BD00BF00000020080000200400002082
:1002840008B50B4B1A6842F400721A601A6842F4FB
:1002940080621A601A6842F480721A60032000F0C7
:1002A4004FF80020FFF7C6FF00F0BAFE002008BD9B
:1002B400003C0240034A1168034B1B780B44136053
:1002C400704700BF2800002000000020014B186880
:1002D400704700BF28000020002808DB0901C9B2CC
:1002E40000F1604000F5614080F80013704700F0B1
:1002F4000F000901C9B2014B1954704714ED00E015
:1003040000B500F00700C0F1070CBCF1040F28BFD2
:100314004FF0040C031D062B0FD9C31E4FF0FF3EF4
:100324000EFA0CF021EA000199400EFA03FE22EACB
:100334000E0241EA02005DF804FB0023EEE7000030
:10034400074AD36823F4E0631B041B0C000200F487
:10035400E060034343F0BF6343F40033D36070476A
:1003640000ED00E010B50446054BD868C0F3022048
:10037400FFF7C6FF01462046FFF7AEFF10BD00BFE2
:1003840000ED00E00138B0F1807F0BD24FF0E023A4
:100394005861054AF02182F8231000209861072251
:1003A4001A6170470120704700ED00E000230F2B15
:1003B40000F2E38070B582B065E085684FEA430ED1
:1003C400032404FA0EF425EA0405CC6804FA0EF4B6
:1003D4002C438460446824EA02044A68C2F300128D
:1003E4009A40224342605CE0DC08083450F8242040
:1003F40003F00705AD004FF00F0E0EFA05FE22EADA
:100404000E0E0A69AA4042EA0E0240F824205CE07B
:10041400062200E0002202FA0EF22A430234574D6B
:1004240045F82420564A94686FEA0C0224EA0C0525
:100434004E6816F4801F01D04CEA0405504CA560A8
:10044400E46802EA04054E6816F4001F01D04CEA81
:1004540004054B4CE560646802EA04054E6816F432
:10046400003F01D04CEA0405454C656024682240F5
:100474004D6815F4803F01D04CEA0402404C2260E0
:1004840001330F2B77D801229A400C6804EA020C3E
:1004940032EA0404F4D14C6804F00304013C012C56
:1004A4008BD94A6802F00302032A09D0C4685D00AC
:1004B4000322AA4024EA02048A68AA402243C260B2
:1004C4004A6802F00302022A8ED004684FEA430EFF
:1004D400032202FA0EF224EA02044A6802F003023A
:1004E40002FA0EF2224302604A6812F4403FC7D077
:1004F40000220192234A546C44F480445464526CA4
:1005040002F480420192019A9C08A51C1B4A52F8ED
:10051400255003F0030E4FEA8E0E0F2202FA0EF25C
:1005240025EA0205184A90423FF474AF02F580624E
:10053400904216D002F58062904214D002F5806297
:10054400904212D002F58062904210D002F580628F
:1005540090420ED002F5806290423FF459AF0722D8
:1005640059E7012257E7022255E7032253E7042201
:1005740051E705224FE702B070BD704700380140D3
:10058400003C014000380240000002400AB1816191
:100594007047090481617047002800F09B8070B5A2
:1005A4000D4604464F4B1B6803F00F038B4208D2E1
:1005B400CBB24C4A1370136803F00F038B4240F024
:1005C4008B80236813F0020F17D013F0040F04D0AC
:1005D400454A936843F4E0539360236813F0080F8B
:1005E40004D0414A936843F4604393603E4A93685D
:1005F40023F0F003A1680B439360236813F0010F09
:1006040032D06368012B21D09A1E012A25D9364A9B
:10061400126812F0020F61D033498A6822F0030293
:1006240013438B60FFF752FE06462F4B9B6803F083
:100634000C036268B3EB820F16D0FFF747FE801BF2
:1006440041F288339842F0D9032042E0264A1268E6
:1006540012F4003FE0D101203BE0234A126812F07B
:10066400007FD9D1012034E01E4B1B6803F00F0337
:10067400AB4207D9EAB21B4B1A701B6803F00F0395
:10068400AB422DD1236813F0040F06D0164A9368A9
:1006940023F4E053E1680B439360236813F0080FDD
:1006A40007D0114A936823F46043216943EAC103E4
:1006B400936000F047F80C4B9B68C3F303130B4A99
:1006C400D35CD8400A4B18600A4B1868FFF7B2FD98
:1006D400002070BD012070470120FAE70120F8E7EF
:1006E4000120F6E7003C024000380240881400086C
:1006F4000800002004000020014B1868704700BF68
:100704000800002008B5FFF7F7FF044B9B68C3F30C
:100714008223034AD35CD84008BD00BF003802409E
:100724008014000808B5FFF7E7FF044B9B68C3F388
:100734004233034AD35CD84008BD00BF00380240AE
:100744008014000808B5604B9B6803F00C03082B69
:1007540006D00C2B5ED0042B40F0B4805B4833E011
:10076400594B5A6802F03F025B6813F4800F2CD097
:10077400554B5868C0F388104FEA401CBCEB000C82
:100784006EEB0E0E4FEA8E1343EA9C634FEA8C1114
:10079400B1EB0C0163EB0E03DB0043EA5173C900B8
:1007A40011EB000C43F10003590200234FEA4C20E3
:1007B40041EADC51FFF704FD434B5B68C3F301439B
:1007C40001335B00B0FBF3F008BD3F4B5868C0F346
:1007D40088104FEA401CBCEB000C6EEB0E0E4FEA87
:1007E4008E1343EA9C634FEA8C11B1EB0C0163EB6B
:1007F4000E03DB0043EA5173C90011EB000C43F113
:100804000003990200234FEA8C2041EA9C51FFF730
:10081400D7FCD1E72C4B5A6802F03F025B6813F413
:10082400800F2AD0284B5868C0F388104FEA401C28
:10083400BCEB000C6EEB0E0E4FEA8E1343EA9C6386
:100844004FEA8C11B1EB0C0163EB0E03DB0043EABE
:100854005173C90011EB000C43F10003590200234A
:100864004FEA4C2041EADC51FFF7AAFC164B5B68C7
:10087400C3F30273B0FBF3F0A6E7134B5868C0F35D
:1008840088104FEA401CBCEB000C6EEB0E0E4FEAD6
:100894008E1343EA9C634FEA8C11B1EB0C0163EBBA
:1008A4000E03DB0043EA5173C90011EB000C43F162
:1008B4000003990200234FEA8C2041EA9C51FFF780
:1008C4007FFCD3E702487FE70038024000127A0039
:1008D4000024F400002800F0018270B582B00446C0
:1008E400036813F0010F41D0994B9B6803F00C038C
:1008F400042B32D0964B9B6803F00C03082B27D0B3
:10090400934B9B6803F00C030C2B59D06368B3F52D
:10091400803F5BD0B3F5A02F5ED08D4B1A6822F4D4
:1009240080321A601A6822F480221A606368002BED
:100934005CD0FFF7CBFC0546854B1B6813F4003FE6
:1009440014D1FFF7C3FC401B6428F5D90320CCE184
:100954007F4B5B6813F4800FD2D07D4B1B6813F47C
:10096400003F03D06368002B00F0BA81236813F0C2
:10097400020F60D0764B9B6813F00C0F4AD0744B77
:100984009B6803F00C03082B3FD0714B9B6803F06A
:100994000C030C2B69D0E368002B75D06D4B01223E
:1009A4001A60FFF793FC0546694B1B6813F0020FAE
:1009B40061D1FFF78BFC401B0228F5D9032094E199
:1009C400634B5B6813F4800FA0D0C6E7604A1368DA
:1009D40043F480331360A9E75D4B1A6842F4802224
:1009E4001A601A6842F480321A609FE7FFF76EFCBF
:1009F4000546574B1B6813F4003FB7D0FFF766FC5E
:100A0400401B6428F5D903206FE1514B5B6813F454
:100A1400800FBAD14E4B1B6813F0020F03D0E3686A
:100A2400012B40F05F814A4A136823F0F8032169DF
:100A340043EAC1031360236813F0080F49D06369C4
:100A4400002B33D0434B0122C3F8802EFFF73EFC2A
:100A540005463F4B5B6F13F0020F3AD1FFF736FCAC
:100A6400401B0228F5D903203FE1394B5B6813F49E
:100A7400800F90D1CEE7364A136823F0F80321693A
:100A840043EAC1031360D6E7324B00221A60FFF732
:100A94001DFC05462E4B1B6813F0020FCBD0FFF74D
:100AA40015FC401B0228F5D903201EE1294B002226
:100AB400C3F8802EFFF70AFC0546254B5B6F13F045
:100AC400020F06D0FFF702FC401B0228F5D90320D1
:100AD4000BE1236813F0040F76D01D4B1B6C13F04D
:100AE400805F33D100230193194B1A6C42F080527A
:100AF4001A641B6C03F080530193019B0125164B70
:100B04001B6813F4807F29D0A368012B3AD0052BEE
:100B14003ED00F4B1A6F22F001021A671A6F22F0AF
:100B240004021A67A368002B3CD0FFF7CFFB0646EC
:100B3400074B1B6F13F0020F45D1FFF7C7FB801B58
:100B440041F288339842F3D90320CEE00025D6E75A
:100B54000038024000004742007000406B4A1368AE
:100B640043F480731360FFF7B1FB0646674B1B68C1
:100B740013F4807FC8D1FFF7A9FB801B0228F5D9A5
:100B84000320B2E0624A136F43F001031367C9E71D
:100B94005F4B1A6F42F004021A671A6F42F00102A7
:100BA4001A67BFE7FFF792FB0646594B1B6F13F01A
:100BB400020F08D0FFF78AFB801B41F2883398426A
:100BC400F3D9032091E0EDB9A369002B00F08C80E8
:100BD4004F4A926802F00C02082A54D0022B17D014
:100BE4004C4B00221A66FFF771FB0446484B1B6806
:100BF40013F0007F45D0FFF769FB001B0228F5D9ED
:100C0400032072E0424A136C23F080531364DBE741
:100C1400404B00221A66FFF759FB05463C4B1B6804
:100C240013F0007F06D0FFF751FB401B0228F5D9D3
:100C340003205AE0E369226A1343626A43EA821397
:100C4400A26A5208013A43EA0243E26A43EA0263AF
:100C5400226B43EA02732E4A53602E4B01221A661A
:100C6400FFF734FB04462A4B1B6813F0007F06D1C0
:100C7400FFF72CFB001B0228F5D9032035E00020E8
:100C840033E0002031E0012B31D0214B5B6803F4C9
:100C94008001E26991422CD103F03F02216A8A4229
:100CA40029D1616A47F6C0721A40B2EB811F24D180
:100CB40003F44031A26A5208013AB1EB024F1ED14B
:100CC40003F07062E16AB2EB016F1AD103F0E04302
:100CD400226BB3EB027F16D1002006E0012070479F
:100CE400012002E0012000E0002002B070BD0120DC
:100CF400FBE70120F9E70120F7E70120F5E70120F0
:100D0400F3E70120F1E70120EFE700BF00700040A6
:100D1400003802400000474210B5044602681369D7
:100D240023F44053C1680B431361836802691A4377
:100D340043691A43C3691A430168CB6823F4164311
:100D440023F00C031343CB600268536923F440730C
:100D540081690B4353610368314A934206D002F51B
:100D64008062934202D0FFF7CDFC01E0FFF7DAFC8A
:100D7400E369B3F5004F29D00021031849411B183A
:100D840041F10001C90041EA5371DB00181863689E
:100D94004FEA83024FEA937341F10001FFF710FA1F
:100DA400204AA2FB00314909642303FB11031B0100
:100DB4003233A2FB03235B0903F0F00202EB0112BE
:100DC40003F00F03216813448B6010BD0023021845
:100DD40043EB0301121841F10001C90041EA5271C9
:100DE400D200101841F10001626892185B41FFF7CC
:100DF400E7F90C4AA2FB00314909642303FB110300
:100E0400DB003233A2FB03235B095A0002F4F872BD
:100E140002EB011203F00703216813448B60D4E74B
:100E2400001001401F85EB5160B310B5044690F8E3
:100E3400413013B3242384F841302268D36823F467
:100E44000053D3602046FFF767FF2268136923F439
:100E5400904313612268536923F02A035361226883
:100E6400D36843F40053D36000206064202384F8E3
:100E7400413084F84230606310BD80F8403000F0A7
:100E8400EFF8D7E70120704730B58BB00024059404
:100E940006940794089409940194224B1A6B42F027
:100EA40004021A631A6B02F004020192019A02947A
:100EB4001A6B42F080021A631A6B02F080020292EB
:100EC400029A03941A6B42F001021A631A6B02F03D
:100ED40001020392039A04941A6B42F002021A6309
:100EE4001B6B03F002030493049B0F4D2246202145
:100EF4002846FFF74BFB4FF4005305934FF40413BC
:100F04000693079405A90948FFF750FA202305938F
:100F1400012306930794089405A92846FFF746FA87
:100F24000BB030BD0038024000000240000802400F
:100F340072B6FEE708B50A480A4B03604FF4E13382
:100F4400436000238360C36003610C2242618361B8
:100F5400C361FFF769FF00B908BDFFF7E9FF00BFF0
:100F64002C0000200044004000B595B0342200213C
:100F740007A800F0ECF8002302930393049305936D
:100F8400069300931F4A116C41F080511164126C56
:100F940002F080520092009A01931B490A6822F4DD
:100FA400404242F480420A600A6802F440420192DC
:100FB400019A0222079201210A9110210B910D92AC
:100FC4000E930F914FF4A87310930423119312926C
:100FD400139207A8FFF77EFC80B90F230293022126
:100FE4000391002304934FF480520592069302A8C0
:100FF400FFF7D2FA20B915B05DF804FBFFF798FFAC
:10100400FFF796FF003802400070004008B5FFF774
:1010140037F9FFF7A9FFFFF737FFFFF78BFFFEE76D
:1010240000B583B0002100910C4B5A6C42F480420D
:101034005A645A6C02F480420092009A01911A6C2C
:1010440042F080521A641B6C03F080530193019B9D
:101054000720FFF775F903B05DF804FB0038024080
:1010640000B589B000230393049305930693079373
:101074000268154B9A4202D009B05DF804FB0021C6
:10108400019103F5FA331A6C42F400321A641A6CB3
:1010940002F400320192019A02911A6B42F00102A9
:1010A4001A631B6B03F001030293029B0C2303934B
:1010B40002230493032306930723079303A90348F6
:1010C400FFF774F9D8E700BF004400400000024075
:1010D400FEE7FEE7FEE7FEE7FEE77047704770476E
:1010E40008B5FFF7E7F808BD034AD2F8883043F49F
:1010F4007003C2F88830704700ED00E0DFF834D0A8
:10110400FFF7F2FF0C480D490D4A002302E0D458C2
:10111400C4500433C4188C42F9D30A4A0A4C00233D
:1011240001E013600432A242FBD300F019F8FFF788
:101134006DFF704700000220000000200C0000201A
:10114400A81400080C00002074000020FEE70244EC
:101154000346934200D1704703F8011BF9E70000EE
:1011640070B50D4D0D4C641BA4100026A64209D188
:101174000B4D0C4C00F076F9641BA4100026A6421B
:1011840005D170BD55F8043B98470136EEE755F894
:10119400043B98470136F2E7A0140008A0140008A5
:1011A400A0140008A41400082DE9F047089D0E4679
:1011B40004460F46002B4AD194468C45B2FA82F27B
:1011C40060D942B1C2F12003974020FA03F30CFA2C
:1011D40002FC1F4394404FEA1C4E1FFA8CF6B7FBE7
:1011E400FEF1230C0EFB117743EA074301FB06F0E3
:1011F40098420AD91CEB030301F1FF3780F01581F3
:10120400984240F21281023963441B1AA4B2B3FB20
:10121400FEF00EFB103344EA034400FB06F6A6423C
:101224000AD91CEB040400F1FF3380F00081A642CC
:1012340040F2FD806444023840EA0140A41B0021CE
:101244001DB1D4400023C5E90043BDE8F0878B42BB
:1012540005D90DB1C5E9000100210846F5E7B3FA47
:1012640083F1002946D1B34202D3824200F2F580D1
:10127400841A66EB030201201746002DE5D0C5E968
:101284000047E2E7002A40F09380A1EB0C034FEA09
:101294001C471FFA8CFE0121B3FBF7F607FB16303F
:1012A400230C43EA00430EFB06F0984208D91CEBDA
:1012B400030306F1FF3802D2984200F2D08046467A
:1012C4001B1AA4B2B3FBF7F007FB103344EA034440
:1012D4000EFB00FEA64508D91CEB040400F1FF3305
:1012E40002D2A64500F2B6801846A4EB0E0440EAEA
:1012F4000640A5E7C1F120078B4022FA07FC4CEA1F
:10130400030C06FA01FE20FA07F426FA07F344EA6E
:101314000E0400FA01F84FEA1C404FEA1449B3FBEB
:10132400F0FE1FFA8CF600FB1E3349EA03430EFB62
:1013340006F9994502FA01F20BD91CEB03030EF1ED
:10134400FF3A80F08580994540F28280AEF1020E2A
:101354006344A3EB0909A4B2B9FBF0F300FB1399AE
:1013640044EA094403FB06F6A64208D91CEB04042C
:1013740003F1FF3068D2A64266D9023B644443EAD3
:101384000E40A41BA0FB02E6B4427346B14652D3FE
:101394004FD05DB1B8EB030264EB090404FA07F71C
:1013A40022FA01F31F43CC40C5E9007400214CE745
:1013B400C2F1200120FA01F30CFA02FC26FA01F131
:1013C400964033434FEA1C471FFA8CFEB1FBF7F0FB
:1013D40007FB1016190C41EA064100FB0EF68E427B
:1013E40004FA02F408D91CEB010100F1FF382DD2F4
:1013F4008E422BD902386144891B9BB2B1FBF7F6AC
:1014040007FB161143EA014306FB0EF1994208D982
:101414001CEB030306F1FF3814D2994212D9023EA1
:1014240063445B1A46EA004136E73946EDE618465E
:1014340002E7F045ADD2BEEB020366EB0C060138C1
:10144400B146A6E74646ECE7034698E74046D3E7AD
:10145400D6467EE76444023847E708460DE7023E75
:1014640063442DE7F8B500BFF8BC08BC9E4670473E
:0C147400F8B500BFF8BC08BC9E467047ED
:101480000000000001020304000000000000000052
:0814900001020304060708092C
:0814980014FDFF7F01000000BC
:0414A0001D02000821
:0414A400F901000842
:0C14A80001000000100000000024F4000F
:0400000508001101DD
:00000001FF
