:020000040800F2
:10000000000002206D260008B1090008B3090008AD
:10001000B5090008B7090008B90900080000000088
:10002000000000000000000000000000BB09000804
:10003000BD09000800000000BF090008C109000850
:10004000BD260008BD260008BD260008BD26000804
:10005000BD260008BD260008BD260008BD260008F4
:10006000BD260008BD260008BD260008BD260008E4
:10007000BD260008BD260008BD260008BD260008D4
:10008000BD260008BD260008BD260008BD260008C4
:10009000BD260008BD260008BD260008BD260008B4
:1000A000BD260008C5090008BD260008BD260008B9
:1000B000BD260008BD260008BD260008BD26000894
:1000C000BD260008BD260008BD260008BD26000884
:1000D000BD260008BD260008BD260008BD26000874
:1000E000BD260008BD260008BD260008BD26000864
:1000F000BD260008BD260008BD260008BD26000854
:10010000BD260008BD260008BD260008BD26000843
:10011000BD260008BD260008BD260008BD26000833
:10012000BD260008BD260008BD260008BD26000823
:10013000BD2600080000000000000000BD260008E9
:10014000BD260008BD260008BD260008BD26000803
:10015000BD260008BD260008BD260008BD260008F3
:10016000BD260008BD260008BD260008BD260008E3
:10017000BD260008BD260008BD26000800000000BE
:1001800000000000BD260008000000000000000084
:10019000BD2600080000000000000000BD26000889
:1001A000000000000000000000000000BD26000864
:1001B000BD260008BD260008BD260008BD26000893
:0401C000BD26000850
:1001C40053B94AB9002908BF00281CBF4FF0FF31BA
:1001D4004FF0FF3000F00CB8ADF1080C6DE904CE1F
:1001E40002F098FADDF804E0DDE9022304B0704778
:1001F400704700BF10B5054C237833B9044B13B1D5
:100204000448AFF300800123237010BD0C000020CC
:1002140000000000D429000808B5034B1BB10349B2
:100224000348AFF3008008BD000000001000002068
:10023400D42900082DE9F0418AB0002405940694DD
:100244000794089409940194414B1A6B42F00402F8
:100254001A631A6B02F004020192019A02941A6B57
:1002640042F080021A631A6B02F080020292029A30
:1002740003941A6B42F001021A631A6B02F0010232
:100284000392039A04941A6B42F002021A631B6BE2
:1002940003F002030493049B2E4D224608212846B2
:1002A40000F038FDDFF8B480224648F2224140468F
:1002B40000F030FD284E22464FF4C071304600F065
:1002C40029FD4FF4005305934FF404130693079448
:1002D40005A9284600F02EFC08230593012706975C
:1002E4000794089405A9284600F024FC40F2013341
:1002F40005930694079405A9404600F01BFC48F2B8
:100304002243059306970794089405A9404600F0F4
:1003140011FC41F6F01305930694079405A92846A9
:1003240000F008FC4FF2010305930694079405A915
:10033400304600F0FFFB4FF4C07305930697079413
:10034400089405A9304600F0F5FB0AB0BDE8F08139
:10035400003802400008024000040240000002404D
:1003640008B50268034B9A4200D008BD00F054FB64
:10037400FBE700BF0000014072B6FEE708B50A487B
:100384000A4B0360FF234360012282600023C360A1
:10039400026143618361C361036200F093FD00B9AC
:1003A40008BDFFF7E9FF00BF04060020001000A00D
:1003B40008B50D480D4B03604FF48273436000236E
:1003C4008360C360036143614FF480228261C3612F
:1003D4000362436283620A23C36201F0D3FB00B960
:1003E40008BDFFF7C9FF00BFAC0500200030014085
:1003F40008B50D480D4B03604FF48273436000232E
:100404008360C360036143614FF400728261C3611E
:100414000362436283620A23C36201F0B3FB00B93F
:1004240008BDFFF7A9FF00BF5405002000380040B5
:1004340000B58BB0002308930993019302930393AF
:1004440004930593069307931A481B4A026043607A
:1004540083604FF6FF72C2600361836101F01CFE8A
:10046400F8B900230893099308A9124801F0E6FE9D
:10047400C8B960230193002202920392059201A954
:100484000C4801F06DFE80B904220DEB020109480D
:1004940001F066FE58B9074800F0C8F90BB05DF8E2
:1004A40004FBFFF769FFFFF767FFFFF765FFFFF73F
:1004B40063FF00BF0C0500200004004008B50B4892
:1004C4004FF0A0430360062303710222C27100238C
:1004D400837142728372C37203738373C37300F0B4
:1004E40028FC00B908BDFFF747FF00BF2800002023
:1004F40000B595B03422002107A802F0DEF80023ED
:10050400029303930493059306930093204A116C7A
:1005140041F080511164126C02F080520092009AF2
:1005240001931C4A136823F4404343F4804313604B
:10053400136803F440430193019B012307934FF491
:100544008033089302230D934FF480020E92042209
:100554000F9248221092119303221292139307A828
:1005640001F0EEF880B90F230293022103910023D6
:1005740004934FF480520592069302A800F0FAFC0B
:1005840020B915B05DF804FBFFF7F6FEFFF7F4FEA3
:10059400003802400070004008B500F023FAFFF76D
:1005A400A7FFFFF747FEFFF7E9FEFFF701FFFFF79D
:1005B4001FFFFFF73DFFFFF781FF0221034800F013
:1005C400AFFB4FF47A7000F039FAF6E7000002400E
:1005D40082B0002100910B4B5A6C42F480425A6461
:1005E4005A6C02F480420092009A01911A6C42F013
:1005F40080521A641B6C03F080530193019B02B078
:10060400704700BF003802402DE9F04188B0002354
:10061400039304930593069307930268264B9A4227
:1006240002D008B0BDE8F08100240094234B9A6BFB
:1006340042F002029A639A6B02F002020092009A5C
:1006440001941A6B42F002021A631A6B02F002025E
:100654000192019A02941A6B42F004021A631B6B12
:1006640003F004030293029B0423039302260496DB
:10067400032506954FF00908CDF81C80104F03A9F7
:10068400384600F057FA4FF4C06303930496059478
:100694000695CDF81C8003A90A4800F04BFA4023C4
:1006A40003930496059406950A23079303A93846F1
:1006B40000F040FAB5E700BF001000A00038024087
:1006C40000040240000802402DE9F0418CB00023F0
:1006D4000793089309930A930B930368414A93423F
:1006E40005D0414A934239D00CB0BDE8F0810024D2
:1006F40001943E4B5A6C42F480525A645A6C02F490
:1007040080520192019A02941A6B42F001021A6318
:100714001A6B02F001020292029A03941A6B42F0DD
:1007240002021A631B6B03F002030393039B10235F
:1007340007930227089703260A9605250B9507A910
:100744002B4800F0F7F938230793089709940A9681
:100754000B9507A9274800F0EDF9C5E70024049498
:10076400224B1A6C42F480421A641A6C02F48042DE
:100774000492049A05941A6B42F004021A631A6BE9
:1007840002F004020592059A06941A6B42F00202E2
:100794001A631B6B03F002030693069B022507955D
:1007A400089503260A9607230B93DFF84C8007A9C4
:1007B400404600F0BFF904230793089509940A966C
:1007C40005270B9707A9404600F0B4F94FF480635E
:1007D4000793089509940A960B9707A9054800F012
:1007E400A9F981E700300140003800400038024098
:1007F4000000024000040240000802400268094B65
:100804009A4200D0704782B000230193064B1A6CC1
:1008140042F002021A641B6C03F002030193019B71
:1008240002B07047000400400038024000B587B0B1
:1008340000230193029303930493059302680E4BE0
:100844009A4202D007B05DF804FB002300930B4BDF
:100854001A6B42F001021A631B6B03F0010300934D
:10086400009BC023019302230293059301A904482A
:1008740000F060F9E6E700BF0004004000380240E1
:100884000000024030B59FB00446002119911A912E
:100894001B911C911D915C2202A801F00EFF23689C
:1008A400B3F1A04F01D01FB030BD4FF48073029359
:1008B40002A800F043FC40BB00250095144C236BB8
:1008C40043F001032363236B03F001030093009BB4
:1008D4004FF4C053199302231A931B9503231C93BB
:1008E4000A231D9319A90B4800F024F9636B43F004
:1008F400800363630195636C43F480436364636CB6
:1009040003F480430193019BCDE7FFF735FDD3E763
:10091400003802400000024030B589B0054600248A
:1009240001941D4B5A6C42F001025A645B6C03F053
:1009340001030193019B02A903A800F0E1FB00F06D
:10094400CFFB164AA2FB00239B0C013B1448154A1B
:10095400026040F2E732C2604360046184608461F3
:1009640001F06EFB044610B1204609B030BD0C48BE
:1009740001F002FA04460028F6D1192000F0D6F856
:100984000F2D01D90124EFE700222946192000F098
:10099400BDF8054B1D60E7E70038024083DE1B43CA
:1009A400500600200000014008000020FEE7FEE79A
:1009B400FEE7FEE7FEE770477047704770470000A8
:1009C40008B5024801F020FA08BD00BF5006002017
:1009D400034AD2F8883043F47003C2F88830704771
:1009E40000ED00E008B50B4B1A6842F400721A607F
:1009F4001A6842F480621A601A6842F480721A60BB
:100A0400032000F071F80F20FFF786FFFFF7E0FDE9
:100A1400002008BD003C0240034A1168034B1B78C8
:100A24000B441360704700BF9806002004000020A8
:100A3400014B1868704700BF9806002038B504467B
:100A4400FFF7F6FF0546B4F1FF3F02D0044B1B78D5
:100A54001C44FFF7EDFF401BA042FAD338BD00BF92
:100A640004000020002807DB00F01F0240090123D6
:100A74009340024A42F82030704700BF00E100E092
:100A8400002808DB0901C9B200F1604000F56140AB
:100A940080F80013704700F00F000901C9B2014B40
:100AA4001954704714ED00E000B500F00700C0F1E0
:100AB400070CBCF1040F28BF4FF0040C031D062BD8
:100AC4000FD9C31E4FF0FF3E0EFA0CF021EA0001CD
:100AD40099400EFA03FE22EA0E0241EA02005DF892
:100AE40004FB0023EEE70000074AD36823F4E06325
:100AF4001B041B0C000200F4E060034343F0BF63DB
:100B040043F40033D360704700ED00E010B50446B1
:100B1400054BD868C0F30220FFF7C6FF0146204604
:100B2400FFF7AEFF10BD00BF00ED00E008B5FFF712
:100B340099FF08BD00230F2B00F2E38070B582B04B
:100B440065E085684FEA430E032404FA0EF425EAAF
:100B54000405CC6804FA0EF42C438460446824EA47
:100B640002044A68C2F300129A40224342605CE0E5
:100B7400DC08083450F8242003F00705AD004FF0DA
:100B84000F0E0EFA05FE22EA0E0E0A69AA4042EA88
:100B94000E0240F824205CE0062200E0002202FA63
:100BA4000EF22A430234574D45F82420564A9468DD
:100BB4006FEA0C0224EA0C054E6816F4801F01D07B
:100BC4004CEA0405504CA560E46802EA04054E684A
:100BD40016F4001F01D04CEA04054B4CE560646830
:100BE40002EA04054E6816F4003F01D04CEA0405FD
:100BF400454C6560246822404D6815F4803F01D05F
:100C04004CEA0402404C226001330F2B77D80122B6
:100C14009A400C6804EA020C32EA0404F4D14C68E9
:100C240004F00304013C012C8BD94A6802F003024E
:100C3400032A09D0C4685D000322AA4024EA0204FE
:100C44008A68AA402243C2604A6802F00302022A68
:100C54008ED004684FEA430E032202FA0EF224EA0D
:100C640002044A6802F0030202FA0EF2224302600E
:100C74004A6812F4403FC7D000220192234A546CC0
:100C840044F480445464526C02F480420192019A08
:100C94009C08A51C1B4A52F8255003F0030E4FEA8A
:100CA4008E0E0F2202FA0EF225EA0205184A90422D
:100CB4003FF474AF02F58062904216D002F5806270
:100CC400904214D002F58062904212D002F5806204
:100CD400904210D002F5806290420ED002F58062FC
:100CE40090423FF459AF072259E7012257E7022205
:100CF40055E7032253E7042251E705224FE702B0E8
:100D040070BD704700380140003C0140003802408B
:100D1400000002400AB18161704709048161704793
:100D2400436901EA030221EA030141EA02418161C4
:100D3400704730B583B0002800F08280044605680F
:100D440090F89534C3B1032384F89534B5F1A04FDA
:100D540017D0206801F028FB237C8DF80030231D78
:100D64000ECB206801F0D7FA70B1022384F89534D1
:100D74000125284603B030BD80F89434FFF782FD86
:100D8400E1E70023A371E4E70021206801F03AFCC5
:100D9400024608B9034617E0022384F89534012576
:100DA400E7E703EBC30104EB8101012048750B75F0
:100DB400CB8500200876C861086203EBC30104EB0D
:100DC400810148620133DBB220799842E9D816E008
:100DD40002EBC20304EB8303002183F8551283F86A
:100DE400542283F85812C3F85C12C3F8601202EB61
:100DF400C20304EB8303C3F864120132D2B29042FB
:100E0400E6D8237C8DF80030231D0ECB206801F03A
:100E140021FB054658B900236374012384F89534F3
:100E2400237B012B08D0206801F0DAFBA1E7022321
:100E340084F8953401259CE7204600F003F8F2E796
:100E4400012596E7034602680121C0F8D814002062
:100E540083F8CC04936943F000639361536D43F0CA
:100E6400805343F00303536570472DE9F843054667
:100E74000F4616469946DDF820802C68A4683C424B
:100E840014BF4FF0010C4FF0000CB44514D0B8F16E
:100E9400FF3FF2D0FFF7CCFDA0EB0900404502D89C
:100EA400B8F1000FE9D1042385F841306B6C43F0AD
:100EB40001036B64012000E00020BDE8F883816435
:100EC4007047000070B582B00446FFF7B1FD002CF6
:100ED4004CD0064694F84130002B3CD025682A6853
:100EE40022F4F852A168013942EA01222A60A36C73
:100EF40000933346002220212046FFF7B6FF28BB8B
:100F040021680B6823F07F4323F0D0036568E2680F
:100F140042EA0562E5692A43256A2A4313430B60C2
:100F240021684A68124B13402569626942EA054206
:100F3400A5692A4313434B602268136843F00103F5
:100F4400136000236364012384F84130002384F890
:100F5400403002B070BD84F840302046FFF754FBA7
:100F640041F288312046FFF7AAFFB7E70120F0E7F6
:100F7400FEF8E0FF002800F09B8070B50D460446A3
:100F84004F4B1B6803F00F038B4208D2CBB24C4A81
:100F94001370136803F00F038B4240F08B802368B7
:100FA40013F0020F17D013F0040F04D0454A9368CE
:100FB40043F4E0539360236813F0080F04D0414ACC
:100FC400936843F4604393603E4A936823F0F003CC
:100FD400A1680B439360236813F0010F32D0636858
:100FE400012B21D09A1E012A25D9364A126812F003
:100FF400020F61D033498A6822F0030213438B60E5
:10100400FFF716FD06462F4B9B6803F00C0362683E
:10101400B3EB820F16D0FFF70BFD801B41F2883330
:101024009842F0D9032042E0264A126812F4003FA5
:10103400E0D101203BE0234A126812F0007FD9D1AD
:10104400012034E01E4B1B6803F00F03AB4207D9A9
:10105400EAB21B4B1A701B6803F00F03AB422DD18D
:10106400236813F0040F06D0164A936823F4E05360
:10107400E1680B439360236813F0080F07D0114A0B
:10108400936823F46043216943EAC103936000F049
:101094008FFA0C4B9B68C3F303130B4AD35CD84001
:1010A4000A4B18600A4B1868FFF736FC002070BD25
:1010B400012070470120FAE70120F8E70120F6E754
:1010C400003C024000380240F429000800000020DF
:1010D40008000020014B1868704700BF0000002082
:1010E40008B5FFF7F7FF044B9B68C3F34233034A89
:1010F400D35CD84008BD00BF00380240EC2900088A
:101104000F2303600B4B9A6802F0030242609A6853
:1011140002F0F00282609A6802F4E052C2609B68B6
:10112400DB0803F4E0530361034B1B6803F00F0374
:101134000B60704700380240003C0240F0B583B0B9
:101144000446066816F001060DD0964AD2F88C3093
:1011540023F0C063816B0B43C2F88C30836B002B8C
:1011640000F09B800026236813F0020F0BD08D4AF9
:10117400D2F88C3023F0C053E16B0B43C2F88C30AF
:10118400E36B03B90126256815F004050FD0854AE1
:10119400D2F88C3023F44013216B0B43C2F88C300B
:1011A400236BB3F5801F7AD0002B7AD000252368F7
:1011B40013F0080F0ED07B4AD2F88C3023F440038E
:1011C400616B0B43C2F88C30636BB3F5800F6AD04C
:1011D40003B90125236813F0200F66D1236813F0A7
:1011E400100F04D094F858206F4BC3F8E021236803
:1011F40013F0800F08D06B4AD2F8943023F44003E4
:10120400E16C0B43C2F89430236813F0400F08D00C
:10121400644AD2F8943023F08063A16C0B43C2F883
:101224009430236813F4807F0DD05E4AD2F8943052
:1012340023F00063616D0B43C2F89430636DB3F126
:10124400006F00F09B80236813F4007F08D0554A98
:10125400D2F8943023F08053616C0B43C2F894307D
:10126400236813F4806F0CD04E4AD2F8943023F0E4
:101274000053216D0B43C2F89430236DB3F1005F2A
:101284007ED0002E7CD12368B3F5006F78D0012D79
:1012940000F02581002003B0F0BD012663E701269C
:1012A40082E7012583E7012692E7002301933D4B62
:1012B4001A6C42F080521A641B6C03F08053019341
:1012C400019B3A4A136843F480731360FFF7B0FB41
:1012D4000746364B1B6813F4807F06D1FFF7A8FB43
:1012E400C01B0228F5D90320D5E72E4B1B6F13F43E
:1012F400407314D0226C02F440729A420FD0294BEE
:101304001A6F22F440722A490120C1F8400E0020CD
:10131400C1F8400E1A671B6F13F0010F12D1236C32
:1013240003F44072B2F5407F1DD01E4A936823F443
:10133400F81393601B490B6F226CC2F30B02134327
:101344000B674BE7FFF774FB0746164B1B6F13F055
:10135400020FE4D1FFF76CFBC01B41F288339842C3
:10136400F3D9032097E70F498A6822F4F81223F08F
:10137400704323F4407313438B60DBE7012562E77A
:101384000B4B00229A66FFF753FB0646054B1B687E
:1013940013F0006F0ED0FFF74BFB801B0228F5D92A
:1013A400032078E7003802400010474200700040F4
:1013B40000004742236813F0010F01D0A26B22B151
:1013C40013F0020F15D0E36B9BB9774AD2F884006F
:1013D400D2F884106368A66843EA861300F44030A8
:1013E400034301F070610B43616943EA0173C2F87E
:1013F4008430236813F0040F03D0226BB2F5801FEE
:1014040006D013F0080F20D0636BB3F5800F1CD106
:10141400654AD2F88400D2F884106368A66843EA67
:10142400861300F440300343206943EA006301F06B
:10143400E0410B43C2F88430D2F88C3023F01F0310
:10144400A16A01390B43C2F88C30236813F4806F0E
:1014540003D0236DB3F1005F28D0236813F4006F29
:1014640011D06368A26843EA8213E2685208013A21
:1014740043EA0243226943EA0263626943EA02736C
:10148400494AC2F88430494B01229A66FFF7D0FAE0
:101494000646454B1B6813F0006F7FF4F8AEFFF768
:1014A400C7FA801B0228F4D90320F4E63E48D0F89A
:1014B4008420C2F301420132D0F884606368A168D9
:1014C40043EA8113E1684908013943EA014343EAE5
:1014D400426306F0E0421343C0F88430BDE7334B67
:1014E40000221A67FFF7A4FA05462F4B1B6813F076
:1014F400005F06D0FFF79CFA401B0228F5D90320B1
:10150400C9E6236813F0040F01D0226B22B113F053
:10151400080F1AD0636BC3B9234AD2F88810A369A1
:10152400E06943EA801301F440310B43616A43EA02
:101534000163C2F88830D2F88C3023F4F853E16A9E
:10154400013943EA0123C2F88C30236813F4807F05
:1015540003D0636DB3F1006F11D0144B01221A67ED
:10156400FFF766FA0446104B1B6813F0005F18D1AE
:10157400FFF75EFA001B0228F5D903208BE60A4820
:10158400D0F88810A369E26943EA8213226A5208F8
:10159400013A43EA024301F070621343C0F8883011
:1015A400DBE7002077E600BF003802400000474236
:1015B40008B5604B9B6803F00C03082B06D00C2B7A
:1015C4005ED0042B40F0B4805B4833E0594B5A683A
:1015D40002F03F025B6813F4800F2CD0554B58681F
:1015E400C0F388104FEA401CBCEB000C6EEB0E0EEF
:1015F4004FEA8E1343EA9C634FEA8C11B1EB0C0162
:1016040063EB0E03DB0043EA5173C90011EB000CDA
:1016140043F10003590200234FEA4C2041EADC5114
:10162400FEF7CEFD434B5B68C3F3014301335B001C
:10163400B0FBF3F008BD3F4B5868C0F388104FEA85
:10164400401CBCEB000C6EEB0E0E4FEA8E1343EA0B
:101654009C634FEA8C11B1EB0C0163EB0E03DB00CE
:1016640043EA5173C90011EB000C43F100039902E2
:1016740000234FEA8C2041EA9C51FEF7A1FDD1E7FB
:101684002C4B5A6802F03F025B6813F4800F2AD097
:10169400284B5868C0F388104FEA401CBCEB000C80
:1016A4006EEB0E0E4FEA8E1343EA9C634FEA8C11E5
:1016B400B1EB0C0163EB0E03DB0043EA5173C90089
:1016C40011EB000C43F10003590200234FEA4C20B4
:1016D40041EADC51FEF774FD164B5B68C3F30273F9
:1016E400B0FBF3F0A6E7134B5868C0F388104FEA39
:1016F400401CBCEB000C6EEB0E0E4FEA8E1343EA5B
:101704009C634FEA8C11B1EB0C0163EB0E03DB001D
:1017140043EA5173C90011EB000C43F10003990231
:1017240000234FEA8C2041EA9C51FEF749FDD3E7A0
:1017340002487FE70038024000127A000024F400D7
:10174400002800F0018270B582B00446036813F0EB
:10175400010F41D0994B9B6803F00C03042B32D04A
:10176400964B9B6803F00C03082B27D0934B9B6884
:1017740003F00C030C2B59D06368B3F5803F5BD0A6
:10178400B3F5A02F5ED08D4B1A6822F480321A6014
:101794001A6822F480221A606368002B5CD0FFF779
:1017A40047F90546854B1B6813F4003F14D1FFF736
:1017B4003FF9401B6428F5D90320CCE17F4B5B68DB
:1017C40013F4800FD2D07D4B1B6813F4003F03D079
:1017D4006368002B00F0BA81236813F0020F60D015
:1017E400764B9B6813F00C0F4AD0744B9B6803F044
:1017F4000C03082B3FD0714B9B6803F00C030C2B9C
:1018040069D0E368002B75D06D4B01221A60FFF795
:101814000FF90546694B1B6813F0020F61D1FFF7FE
:1018240007F9401B0228F5D9032094E1634B5B6858
:1018340013F4800FA0D0C6E7604A136843F48033E2
:101844001360A9E75D4B1A6842F480221A601A6893
:1018540042F480321A609FE7FFF7EAF80546574BD7
:101864001B6813F4003FB7D0FFF7E2F8401B64286D
:10187400F5D903206FE1514B5B6813F4800FBAD1A3
:101884004E4B1B6813F0020F03D0E368012B40F0AA
:101894005F814A4A136823F0F803216943EAC103CC
:1018A4001360236813F0080F49D06369002B33D009
:1018B400434B0122C3F8802EFFF7BAF805463F4B8D
:1018C4005B6F13F0020F3AD1FFF7B2F8401B022806
:1018D400F5D903203FE1394B5B6813F4800F90D1B5
:1018E400CEE7364A136823F0F803216943EAC103BB
:1018F4001360D6E7324B00221A60FFF799F80546C9
:101904002E4B1B6813F0020FCBD0FFF791F8401B4E
:101914000228F5D903201EE1294B0022C3F8802EAA
:10192400FFF786F80546254B5B6F13F0020F06D0D0
:10193400FFF77EF8401B0228F5D903200BE123684A
:1019440013F0040F76D01D4B1B6C13F0805F33D162
:1019540000230193194B1A6C42F080521A641B6CD9
:1019640003F080530193019B0125164B1B6813F46C
:10197400807F29D0A368012B3AD0052B3ED00F4B92
:101984001A6F22F001021A671A6F22F004021A6712
:10199400A368002B3CD0FFF74BF80646074B1B6FA0
:1019A40013F0020F45D1FFF743F8801B41F288334F
:1019B4009842F3D90320CEE00025D6E70038024050
:1019C40000004742007000406B4A136843F4807380
:1019D4001360FFF72DF80646674B1B6813F4807FEE
:1019E400C8D1FFF725F8801B0228F5D90320B2E0FF
:1019F400624A136F43F001031367C9E75F4B1A6F21
:101A040042F004021A671A6F42F001021A67BFE734
:101A1400FFF70EF80646594B1B6F13F0020F08D060
:101A2400FFF706F8801B41F288339842F3D903206C
:101A340091E0EDB9A369002B00F08C804F4A9268C5
:101A440002F00C02082A54D0022B17D04C4B00226F
:101A54001A66FEF7EDFF0446484B1B6813F0007F3F
:101A640045D0FEF7E5FF001B0228F5D9032072E0FC
:101A7400424A136C23F080531364DBE7404B00228B
:101A84001A66FEF7D5FF05463C4B1B6813F0007F32
:101A940006D0FEF7CDFF401B0228F5D903205AE0FB
:101AA400E369226A1343626A43EA8213A26A520810
:101AB400013A43EA0243E26A43EA0263226B43EADD
:101AC40002732E4A53602E4B01221A66FEF7B0FFB2
:101AD40004462A4B1B6813F0007F06D1FEF7A8FFCB
:101AE400001B0228F5D9032035E0002033E0002054
:101AF40031E0012B31D0214B5B6803F48001E269B2
:101B040091422CD103F03F02216A8A4229D1616AB1
:101B140047F6C0721A40B2EB811F24D103F440315E
:101B2400A26A5208013AB1EB024F1ED103F070626F
:101B3400E16AB2EB016F1AD103F0E043226BB3EB1D
:101B4400027F16D1002006E001207047012002E048
:101B5400012000E0002002B070BD0120FBE701205D
:101B6400F9E70120F7E70120F5E70120F3E7012079
:101B7400F1E70120EFE700BF0070004000380240A9
:101B84000000474200285AD010B50446436A33B9CE
:101B94004368B3F5827F05D00023C36102E00023CC
:101BA400036143610023A36294F85130002B40D0B9
:101BB400022384F851302268136823F04003136031
:101BC400636803F48273A26802F404421343E26874
:101BD40002F400621343226902F0020213436269B1
:101BE40002F001021343A26902F400721343E26992
:101BF40002F038021343226A02F080021343A26AFD
:101C040002F40052216813430B60638B03F0040356
:101C1400626A02F01002216813434B602268D369A0
:101C240023F40063D36100206065012384F85130FC
:101C340010BD84F850302046FEF746FDB8E7012079
:101C44007047000030B4036A026A22F001020262A3
:101C54004268846924F0730C0C6844EA0C0423F091
:101C6400020C8B6843EA0C03114DA84203D005F51E
:101C74008065A84205D123F00803CD682B4323F0E7
:101C840004030B4DA84203D005F58065A84207D193
:101C940022F440724D6945EA020C8A6942EA0C0258
:101CA400426084614A684263036230BC704700BF8B
:101CB4000000014030B4036A026A22F480720262B6
:101CC4004268C46924F0730C0C6844EA0C0523F4DC
:101CD40000738C6843EA0423114CA04203D004F53A
:101CE4008064A04206D123F40063CC6843EA042351
:101CF40023F480630A4CA04203D004F58064A0421C
:101D040007D122F440524C6942EA04128C6942EA37
:101D140004124260C5614A68C263036230BC704702
:101D24000000014030B4036A026A22F48052026265
:101D34004468C26922F4E6420D6842EA052223F4AB
:101D440000538D6843EA0533094DA84203D005F5D5
:101D54008065A84204D124F480444D6944EA851482
:101D64004460C2614A680264036230BC704700BFC9
:101D7400000001407047000090F83D30DBB2012BB9
:101D840037D1022380F83D300268D36843F0010361
:101D9400D3600368194A934220D0B3F1804F1DD019
:101DA400A2F57C42934219D002F58062934215D089
:101DB40002F58062934211D002F5784293420DD02D
:101DC40002F57052934209D0A2F59432934205D0A1
:101DD4001A6842F001021A60002070479A6802F003
:101DE4000702062A07D01A6842F001021A6000208E
:101DF4007047012070470020704700BF0000014079
:101E0400704770477047704770B504460368DE68D2
:101E14001D6915F0020F10D016F0020F0DD06FF0EF
:101E240002021A610123037703689B6913F0030F0D
:101E34005ED0FFF7E6FF0023237715F0040F12D0DE
:101E440016F0040F0FD023686FF004021A61022306
:101E5400237723689B6913F4407F4FD02046FFF714
:101E6400D0FF0023237715F0080F12D016F0080FC7
:101E74000FD023686FF008021A61042323772368C4
:101E8400DB6913F0030F40D02046FFF7BAFF0023AD
:101E9400237715F0100F12D016F0100F0FD023680F
:101EA4006FF010021A61082323772368DB6913F4A7
:101EB400407F31D02046FFF7A4FF0023237715F09D
:101EC400010F02D016F0010F2DD115F0800F02D0B2
:101ED40016F0800F2FD115F0400F02D016F0400FEE
:101EE40031D115F0200F02D016F0200F33D170BD80
:101EF400FFF786FF2046FFF785FF9CE72046FFF7A4
:101F04007FFF2046FFF77EFFABE72046FFF778FF11
:101F14002046FFF777FFBAE72046FFF771FF204618
:101F2400FFF770FFC9E723686FF001021A612046CA
:101F3400FEF716FAC9E723686FF080021A6120469B
:101F440000F0C3F9C7E723686FF040021A61204626
:101F5400FFF759FFC5E723686FF020021A61204696
:101F640000F0B2F9C3E700000368344A904212D08B
:101F7400B0F1804F0FD0A2F57C4290420BD002F515
:101F84008062904207D002F58062904203D002F54D
:101F94007842904203D123F070034A681343274ADE
:101FA40090422AD0B0F1804F27D0A2F57C429042D3
:101FB40023D002F5806290421FD002F580629042E5
:101FC4001BD002F57842904217D002F5705290422D
:101FD40013D002F5806290420FD002F580629042E5
:101FE4000BD0A2F59832904207D002F5806290425D
:101FF40003D002F58062904203D123F44073CA688F
:10200400134323F080034A69134303608B68C3625C
:102014000B688362094B984203D003F580639842AE
:1020240001D10B69036301234361036913F0010FB9
:1020340003D0036923F001030361704700000140EA
:1020440040B310B5044690F83D30F3B1022384F850
:102054003D30214651F8040BFFF786FF012384F835
:10206400463084F83E3084F83F3084F8403084F8B9
:10207400413084F8423084F8433084F8443084F8A2
:10208400453084F83D30002010BD80F83C30FFF727
:1020940071FEDBE70120704740B310B5044690F8A9
:1020A4003D30F3B1022384F83D30214651F8040B4E
:1020B400FFF75AFF012384F8463084F83E3084F851
:1020C4003F3084F8403084F8413084F8423084F85A
:1020D400433084F8443084F8453084F83D3000209F
:1020E40010BD80F83C30FEF789FBDBE70120704728
:1020F40030B4036A026A22F0100202624468826900
:1021040022F4E6420D6842EA052223F020038D689A
:1021140043EA0513114DA84203D005F58065A84292
:1021240006D123F08003CD6843EA051323F040036E
:102134000A4DA84203D005F58065A84207D124F4CE
:1021440040644D6944EA85048D6944EA8504446029
:1021540082614A688263036230BC704700000140B8
:1021640038B590F83C30012B66D004460D46012367
:1021740080F83C300C2A5AD8DFE802F00759595944
:102184001B5959593059595944000068FFF75AFDF1
:102194002268936943F0080393612268936923F0EA
:1021A400040393612268936929690B4393610020B6
:1021B4003EE00068FFF79CFF2268936943F40063E4
:1021C40093612268936923F480639361226893691D
:1021D400296943EA01239361002029E00068FFF79D
:1021E40069FD2268D36943F00803D3612268D36987
:1021F40023F00403D3612268D36929690B43D361B3
:10220400002015E00068FFF78DFD2268D36943F4D0
:102214000063D3612268D36923F48063D3612268A5
:10222400D369296943EA0123D361002000E0012036
:10223400002384F83C3038BD0220FCE790F83C20B1
:10224400012A3DD010B40346012280F83C2002222A
:1022540080F83D2002685068946820F0700C08688B
:1022640040EA0C0050601A68164882421AD0B2F153
:10227400804F17D0A0F57C40824213D000F58060D7
:1022840082420FD000F5806082420BD000F5784086
:10229400824207D000F57050824203D0A0F59430FA
:1022A400824204D124F080044968214391600122D0
:1022B40083F83D20002083F83C005DF8044B704710
:1022C40002207047000001407047704782B000232D
:1022D4000193019B01330193019BB3F1706F15D8F6
:1022E4000369002BF5DA00230193036943F001032A
:1022F4000361019B01330193019BB3F1706F08D813
:10230400036913F0010FF4D1002000E0032002B0B0
:1023140070470320FBE784B010B5044603A880E8A7
:102324000E009DF81130012B21D1A36B23F48033CF
:10233400A363E36823F4840323F04003E360E368C6
:1023440023F44013E3609DF81830012B0AD0204693
:10235400FFF7BCFF9DF80E30012B1CD0BDE81040E8
:1023640004B07047E36843F48013E360EFE7E36885
:1023740043F04003E3602046FFF7A8FF9DF81530C3
:1023840023B9A36B43F48033A363E3E7A36B23F480
:102394008033A363DEE7A36843F00603A360A36866
:1023A40043F02003A360D9E7836823F0010383602B
:1023B4000020704782B000230193019B01330193F5
:1023C400019BB3F1706F15D80369002BF5DA002374
:1023D4000193890141F020010161019B01330193C3
:1023E400019BB3F1706F08D8036913F0200FF4D187
:1023F400002000E0032002B070470320FBE782B016
:1024040000230193019B01330193019BB3F1706F8E
:1024140013D80369002BF5DA002301931023036119
:10242400019B01330193019BB3F1706F08D80369D9
:1024340013F0100FF4D1002000E0032002B0704725
:102444000320FBE7D0F800381943C0F80018002037
:102454007047000084B0F8B5044607A880E80E0071
:10246400002306E003F1400204EB820200215160E4
:1024740001330E2BF6D99DF8266006BBD4F8043838
:1024840043F00203C4F80438A36B23F40013A363DA
:10249400236843F040032360236843F080032360F0
:1024A4000023C4F8003E9DF82130012B11D19DF882
:1024B4001F304BB900212046FFF7C4FF0DE0A36B8A
:1024C40043F40013A363EBE701212046FFF7BAFFAF
:1024D40003E003212046FFF7B5FF10212046FFF754
:1024E40069FF054600B101252046FFF788FF00B1CA
:1024F400012504F5006C0023CCF81030CCF814301E
:10250400CCF81C300AE0CBB94FF00060C2F80009E7
:1025140000220A614FF67F328A6001339DF81C1055
:10252400994210D904EB431202F51061D2F8000964
:102534000028E8DB0020C2F80009E9E74FF09040EA
:10254400C2F80009E4E700230AE0BBB14FF090476A
:10255400C2F8007B002202614FF67F3282600133B1
:10256400994210D904EB431202F53060D2F8007B93
:10257400002FEADB0027C2F8007BEBE74FF000678F
:10258400C2F8007BE6E7DCF8103023F48073CCF863
:1025940010300023A3616FF0804363619DF81E3007
:1025A4001BB9A36943F01003A361A2690B4B134346
:1025B400A3619DF822301BB1A36943F00803A36112
:1025C400012E04D02846BDE8F84004B07047A36942
:1025D40043F0804343F00403A361F3E700383C80F5
:1025E400D0F8003E23F00303C0F8003ED0F80438CE
:1025F40043F00203C0F8043800207047406900F03B
:102604000100704738B50546C36823F0C043C36072
:10261400012913D019BBC36843F08043C36000246D
:102624000A20FEF70BFA0A342846FFF7E7FF08B141
:10263400C72CF5D9C82C14D0002038BDC36843F08A
:102644000053C36000240A20FEF7F8F90A34284630
:10265400FFF7D4FF0128EDD0C72CF4D9EAE7012015
:10266400EBE70120E9E70000DFF834D0FEF7B0F92A
:102674000C480D490D4A002302E0D458C4500433D9
:10268400C4188C42F9D30A4A0A4C002301E01360AF
:102694000432A242FBD300F019F8FDF77DFF704726
:1026A40000000220000000200C000020142A000872
:1026B4000C0000209C060020FEE7024403469342DF
:1026C40000D1704703F8011BF9E7000070B50D4D08
:1026D4000D4C641BA4100026A64209D10B4D0C4CD2
:1026E40000F076F9641BA4100026A64205D170BD43
:1026F40055F8043B98470136EEE755F8043B9847F4
:102704000136F2E70C2A00080C2A00080C2A0008FB
:10271400102A00082DE9F047089D0E4604460F468E
:10272400002B4AD194468C45B2FA82F260D942B168
:10273400C2F12003974020FA03F30CFA02FC1F4372
:1027440094404FEA1C4E1FFA8CF6B7FBFEF1230CA3
:102754000EFB117743EA074301FB06F098420AD9BE
:102764001CEB030301F1FF3780F01581984240F21E
:102774001281023963441B1AA4B2B3FBFEF00EFBB0
:10278400103344EA034400FB06F6A6420AD91CEBC4
:10279400040400F1FF3380F00081A64240F2FD8082
:1027A4006444023840EA0140A41B00211DB1D44016
:1027B4000023C5E90043BDE8F0878B4205D90DB17C
:1027C400C5E9000100210846F5E7B3FA83F10029C1
:1027D40046D1B34202D3824200F2F580841A66EBFA
:1027E400030201201746002DE5D0C5E90047E2E7C2
:1027F400002A40F09380A1EB0C034FEA1C471FFA18
:102804008CFE0121B3FBF7F607FB1630230C43EAD9
:1028140000430EFB06F0984208D91CEB030306F1B3
:10282400FF3802D2984200F2D08046461B1AA4B266
:10283400B3FBF7F007FB103344EA03440EFB00FE3E
:10284400A64508D91CEB040400F1FF3302D2A645C7
:1028540000F2B6801846A4EB0E0440EA0640A5E751
:10286400C1F120078B4022FA07FC4CEA030C06FA5C
:1028740001FE20FA07F426FA07F344EA0E0400FAEC
:1028840001F84FEA1C404FEA1449B3FBF0FE1FFA6B
:102894008CF600FB1E3349EA03430EFB06F9994507
:1028A40002FA01F20BD91CEB03030EF1FF3A80F09C
:1028B4008580994540F28280AEF1020E6344A3EB19
:1028C4000909A4B2B9FBF0F300FB139944EA0944E3
:1028D40003FB06F6A64208D91CEB040403F1FF30FF
:1028E40068D2A64266D9023B644443EA0E40A41B64
:1028F400A0FB02E6B4427346B14652D34FD05DB159
:10290400B8EB030264EB090404FA07F722FA01F3B3
:102914001F43CC40C5E9007400214CE7C2F12001FB
:1029240020FA01F30CFA02FC26FA01F19640334333
:102934004FEA1C471FFA8CFEB1FBF7F007FB101699
:10294400190C41EA064100FB0EF68E4204FA02F429
:1029540008D91CEB010100F1FF382DD28E422BD98E
:1029640002386144891B9BB2B1FBF7F607FB1611D1
:1029740043EA014306FB0EF1994208D91CEB030319
:1029840006F1FF3814D2994212D9023E63445B1A0D
:1029940046EA004136E73946EDE6184602E7F045D7
:1029A400ADD2BEEB020366EB0C060138B146A6E7D6
:1029B4004646ECE7034698E74046D3E7D6467EE72B
:1029C4006444023847E708460DE7023E63442DE7B6
:1029D400F8B500BFF8BC08BC9E467047F8B500BF08
:0829E400F8BC08BC9E467047D8
:1029EC0000000000010203040000000000000000D1
:0829FC000102030406070809AB
:082A040014FDFF7F010000003A
:042A0C001D0200089F
:042A1000F9010008C0
:0C2A14000024F40001000000100000008D
:040000050800266D5C
:00000001FF
